{
  "_format": "hh-sol-artifact-1",
  "contractName": "MidasTest",
  "sourceName": "contracts/MidasTest.sol",
  "abi": [
    {
      "inputs": [],
      "stateMutability": "nonpayable",
      "type": "constructor"
    },
    {
      "anonymous": false,
      "inputs": [
        {
          "indexed": true,
          "internalType": "address",
          "name": "previousOwner",
          "type": "address"
        },
        {
          "indexed": true,
          "internalType": "address",
          "name": "newOwner",
          "type": "address"
        }
      ],
      "name": "OwnershipTransferred",
      "type": "event"
    },
    {
      "inputs": [
        {
          "internalType": "uint256",
          "name": "_projectIdToClose",
          "type": "uint256"
        }
      ],
      "name": "closeProject",
      "outputs": [],
      "stateMutability": "nonpayable",
      "type": "function"
    },
    {
      "inputs": [
        {
          "internalType": "uint256",
          "name": "_createdAt",
          "type": "uint256"
        },
        {
          "internalType": "string",
          "name": "_projectDetails",
          "type": "string"
        },
        {
          "internalType": "uint256",
          "name": "_deadline",
          "type": "uint256"
        },
        {
          "internalType": "string",
          "name": "_testType",
          "type": "string"
        },
        {
          "internalType": "string",
          "name": "_questions",
          "type": "string"
        },
        {
          "internalType": "string",
          "name": "_restrictionsDetail",
          "type": "string"
        },
        {
          "internalType": "uint256",
          "name": "_maxTestersQuantity",
          "type": "uint256"
        },
        {
          "internalType": "uint256",
          "name": "_investment",
          "type": "uint256"
        }
      ],
      "name": "createProject",
      "outputs": [],
      "stateMutability": "nonpayable",
      "type": "function"
    },
    {
      "inputs": [
        {
          "internalType": "uint256",
          "name": "_projectIdToEnroll",
          "type": "uint256"
        }
      ],
      "name": "enrollToProject",
      "outputs": [],
      "stateMutability": "nonpayable",
      "type": "function"
    },
    {
      "inputs": [],
      "name": "getAllProjects",
      "outputs": [
        {
          "internalType": "uint256[]",
          "name": "",
          "type": "uint256[]"
        }
      ],
      "stateMutability": "view",
      "type": "function"
    },
    {
      "inputs": [
        {
          "internalType": "uint256",
          "name": "_testEnrollmentIdToGetUserData",
          "type": "uint256"
        }
      ],
      "name": "getEnrollmentUserData",
      "outputs": [
        {
          "internalType": "string",
          "name": "",
          "type": "string"
        },
        {
          "internalType": "uint256",
          "name": "",
          "type": "uint256"
        },
        {
          "internalType": "uint256",
          "name": "",
          "type": "uint256"
        },
        {
          "internalType": "address",
          "name": "",
          "type": "address"
        }
      ],
      "stateMutability": "view",
      "type": "function"
    },
    {
      "inputs": [],
      "name": "getMidasFee",
      "outputs": [
        {
          "internalType": "uint256",
          "name": "",
          "type": "uint256"
        }
      ],
      "stateMutability": "view",
      "type": "function"
    },
    {
      "inputs": [
        {
          "internalType": "uint256",
          "name": "_projectIdToGet",
          "type": "uint256"
        }
      ],
      "name": "getProjectInfo",
      "outputs": [
        {
          "components": [
            {
              "internalType": "uint256",
              "name": "id",
              "type": "uint256"
            },
            {
              "internalType": "uint256",
              "name": "createdAt",
              "type": "uint256"
            },
            {
              "internalType": "string",
              "name": "projectDetails",
              "type": "string"
            },
            {
              "internalType": "uint256",
              "name": "deadline",
              "type": "uint256"
            },
            {
              "internalType": "string",
              "name": "testType",
              "type": "string"
            },
            {
              "internalType": "string",
              "name": "questions",
              "type": "string"
            },
            {
              "internalType": "string",
              "name": "restrictionsDetail",
              "type": "string"
            },
            {
              "internalType": "uint256",
              "name": "maxTestersQuantity",
              "type": "uint256"
            },
            {
              "internalType": "uint256",
              "name": "investment",
              "type": "uint256"
            },
            {
              "internalType": "uint256",
              "name": "status",
              "type": "uint256"
            }
          ],
          "internalType": "struct Project",
          "name": "",
          "type": "tuple"
        }
      ],
      "stateMutability": "view",
      "type": "function"
    },
    {
      "inputs": [
        {
          "internalType": "uint256",
          "name": "_projectIdToGetOwnerName",
          "type": "uint256"
        }
      ],
      "name": "getProjectOwnerName",
      "outputs": [
        {
          "internalType": "string",
          "name": "",
          "type": "string"
        }
      ],
      "stateMutability": "view",
      "type": "function"
    },
    {
      "inputs": [
        {
          "internalType": "uint256",
          "name": "_projectIdToGetResults",
          "type": "uint256"
        }
      ],
      "name": "getProjectResults",
      "outputs": [
        {
          "internalType": "uint256[]",
          "name": "",
          "type": "uint256[]"
        }
      ],
      "stateMutability": "view",
      "type": "function"
    },
    {
      "inputs": [
        {
          "internalType": "uint256",
          "name": "_testEnrollmentIdToGet",
          "type": "uint256"
        }
      ],
      "name": "getTestEnrollment",
      "outputs": [
        {
          "components": [
            {
              "internalType": "uint256",
              "name": "id",
              "type": "uint256"
            },
            {
              "internalType": "uint256",
              "name": "status",
              "type": "uint256"
            },
            {
              "internalType": "string",
              "name": "results",
              "type": "string"
            }
          ],
          "internalType": "struct TestEnrollment",
          "name": "",
          "type": "tuple"
        }
      ],
      "stateMutability": "view",
      "type": "function"
    },
    {
      "inputs": [
        {
          "internalType": "uint256",
          "name": "_testEnrollmentIdToGetProject",
          "type": "uint256"
        }
      ],
      "name": "getTestEnrollmentProjectInfo",
      "outputs": [
        {
          "components": [
            {
              "internalType": "uint256",
              "name": "id",
              "type": "uint256"
            },
            {
              "internalType": "uint256",
              "name": "createdAt",
              "type": "uint256"
            },
            {
              "internalType": "string",
              "name": "projectDetails",
              "type": "string"
            },
            {
              "internalType": "uint256",
              "name": "deadline",
              "type": "uint256"
            },
            {
              "internalType": "string",
              "name": "testType",
              "type": "string"
            },
            {
              "internalType": "string",
              "name": "questions",
              "type": "string"
            },
            {
              "internalType": "string",
              "name": "restrictionsDetail",
              "type": "string"
            },
            {
              "internalType": "uint256",
              "name": "maxTestersQuantity",
              "type": "uint256"
            },
            {
              "internalType": "uint256",
              "name": "investment",
              "type": "uint256"
            },
            {
              "internalType": "uint256",
              "name": "status",
              "type": "uint256"
            }
          ],
          "internalType": "struct Project",
          "name": "",
          "type": "tuple"
        }
      ],
      "stateMutability": "view",
      "type": "function"
    },
    {
      "inputs": [
        {
          "internalType": "address",
          "name": "_address",
          "type": "address"
        }
      ],
      "name": "getUserCompletedTestsCount",
      "outputs": [
        {
          "internalType": "uint256",
          "name": "",
          "type": "uint256"
        }
      ],
      "stateMutability": "view",
      "type": "function"
    },
    {
      "inputs": [],
      "name": "getUserCreatedProjects",
      "outputs": [
        {
          "internalType": "uint256[]",
          "name": "",
          "type": "uint256[]"
        }
      ],
      "stateMutability": "view",
      "type": "function"
    },
    {
      "inputs": [
        {
          "internalType": "address",
          "name": "_address",
          "type": "address"
        },
        {
          "internalType": "bool",
          "name": "_returnOnlyCompleted",
          "type": "bool"
        }
      ],
      "name": "getUserEnrollments",
      "outputs": [
        {
          "internalType": "uint256[]",
          "name": "",
          "type": "uint256[]"
        }
      ],
      "stateMutability": "view",
      "type": "function"
    },
    {
      "inputs": [
        {
          "internalType": "address",
          "name": "_userAddress",
          "type": "address"
        }
      ],
      "name": "getUserInfo",
      "outputs": [
        {
          "components": [
            {
              "internalType": "address",
              "name": "userAddress",
              "type": "address"
            },
            {
              "internalType": "string",
              "name": "nickname",
              "type": "string"
            },
            {
              "internalType": "string",
              "name": "country",
              "type": "string"
            },
            {
              "internalType": "uint256",
              "name": "birthdateYear",
              "type": "uint256"
            },
            {
              "internalType": "string",
              "name": "description",
              "type": "string"
            },
            {
              "internalType": "string[]",
              "name": "interests",
              "type": "string[]"
            },
            {
              "internalType": "string",
              "name": "profileImageURL",
              "type": "string"
            },
            {
              "internalType": "bool",
              "name": "isSet",
              "type": "bool"
            }
          ],
          "internalType": "struct User",
          "name": "",
          "type": "tuple"
        }
      ],
      "stateMutability": "view",
      "type": "function"
    },
    {
      "inputs": [],
      "name": "midasFee",
      "outputs": [
        {
          "internalType": "uint256",
          "name": "",
          "type": "uint256"
        }
      ],
      "stateMutability": "view",
      "type": "function"
    },
    {
      "inputs": [],
      "name": "minimumInvestment",
      "outputs": [
        {
          "internalType": "uint256",
          "name": "",
          "type": "uint256"
        }
      ],
      "stateMutability": "view",
      "type": "function"
    },
    {
      "inputs": [],
      "name": "owner",
      "outputs": [
        {
          "internalType": "address",
          "name": "",
          "type": "address"
        }
      ],
      "stateMutability": "view",
      "type": "function"
    },
    {
      "inputs": [
        {
          "internalType": "address",
          "name": "",
          "type": "address"
        }
      ],
      "name": "ownerProjectCount",
      "outputs": [
        {
          "internalType": "uint256",
          "name": "",
          "type": "uint256"
        }
      ],
      "stateMutability": "view",
      "type": "function"
    },
    {
      "inputs": [
        {
          "internalType": "address",
          "name": "",
          "type": "address"
        }
      ],
      "name": "ownerTestEnrollmentCount",
      "outputs": [
        {
          "internalType": "uint256",
          "name": "",
          "type": "uint256"
        }
      ],
      "stateMutability": "view",
      "type": "function"
    },
    {
      "inputs": [
        {
          "internalType": "uint256",
          "name": "_projectIdToKickOff",
          "type": "uint256"
        }
      ],
      "name": "projectKickOff",
      "outputs": [],
      "stateMutability": "payable",
      "type": "function"
    },
    {
      "inputs": [
        {
          "internalType": "uint256",
          "name": "",
          "type": "uint256"
        }
      ],
      "name": "projectRemainingInvestment",
      "outputs": [
        {
          "internalType": "uint256",
          "name": "",
          "type": "uint256"
        }
      ],
      "stateMutability": "view",
      "type": "function"
    },
    {
      "inputs": [
        {
          "internalType": "uint256",
          "name": "",
          "type": "uint256"
        }
      ],
      "name": "projectTestEnrollmentCount",
      "outputs": [
        {
          "internalType": "uint256",
          "name": "",
          "type": "uint256"
        }
      ],
      "stateMutability": "view",
      "type": "function"
    },
    {
      "inputs": [
        {
          "internalType": "uint256",
          "name": "",
          "type": "uint256"
        }
      ],
      "name": "projectToOwner",
      "outputs": [
        {
          "internalType": "address",
          "name": "",
          "type": "address"
        }
      ],
      "stateMutability": "view",
      "type": "function"
    },
    {
      "inputs": [],
      "name": "renounceOwnership",
      "outputs": [],
      "stateMutability": "nonpayable",
      "type": "function"
    },
    {
      "inputs": [
        {
          "internalType": "uint256",
          "name": "_newFee",
          "type": "uint256"
        }
      ],
      "name": "setMidasFee",
      "outputs": [],
      "stateMutability": "nonpayable",
      "type": "function"
    },
    {
      "inputs": [
        {
          "internalType": "string",
          "name": "_nickname",
          "type": "string"
        },
        {
          "internalType": "string",
          "name": "_country",
          "type": "string"
        },
        {
          "internalType": "uint256",
          "name": "_birthdateYear",
          "type": "uint256"
        },
        {
          "internalType": "string",
          "name": "_description",
          "type": "string"
        },
        {
          "internalType": "string[]",
          "name": "_interests",
          "type": "string[]"
        },
        {
          "internalType": "string",
          "name": "_profileImageURL",
          "type": "string"
        }
      ],
      "name": "setUserInfo",
      "outputs": [
        {
          "internalType": "string",
          "name": "",
          "type": "string"
        }
      ],
      "stateMutability": "nonpayable",
      "type": "function"
    },
    {
      "inputs": [
        {
          "internalType": "uint256",
          "name": "",
          "type": "uint256"
        }
      ],
      "name": "testEnrollmentToOwner",
      "outputs": [
        {
          "internalType": "address",
          "name": "",
          "type": "address"
        }
      ],
      "stateMutability": "view",
      "type": "function"
    },
    {
      "inputs": [
        {
          "internalType": "uint256",
          "name": "",
          "type": "uint256"
        }
      ],
      "name": "testEnrollmentToProject",
      "outputs": [
        {
          "internalType": "uint256",
          "name": "",
          "type": "uint256"
        }
      ],
      "stateMutability": "view",
      "type": "function"
    },
    {
      "inputs": [
        {
          "internalType": "address",
          "name": "newOwner",
          "type": "address"
        }
      ],
      "name": "transferOwnership",
      "outputs": [],
      "stateMutability": "nonpayable",
      "type": "function"
    },
    {
      "inputs": [
        {
          "internalType": "uint256",
          "name": "_testEnrollmentIdToUpdate",
          "type": "uint256"
        },
        {
          "internalType": "uint256",
          "name": "_status",
          "type": "uint256"
        },
        {
          "internalType": "string",
          "name": "_results",
          "type": "string"
        }
      ],
      "name": "updateEnrollmentResult",
      "outputs": [],
      "stateMutability": "nonpayable",
      "type": "function"
    },
    {
      "inputs": [
        {
          "internalType": "uint256",
          "name": "_projectIdToUpdate",
          "type": "uint256"
        },
        {
          "internalType": "string",
          "name": "_projectDetails",
          "type": "string"
        },
        {
          "internalType": "uint256",
          "name": "_deadline",
          "type": "uint256"
        },
        {
          "internalType": "string",
          "name": "_testType",
          "type": "string"
        },
        {
          "internalType": "string",
          "name": "_questions",
          "type": "string"
        },
        {
          "internalType": "string",
          "name": "_restrictionsDetail",
          "type": "string"
        },
        {
          "internalType": "uint256",
          "name": "_maxTestersQuantity",
          "type": "uint256"
        },
        {
          "internalType": "uint256",
          "name": "_investment",
          "type": "uint256"
        }
      ],
      "name": "updateProjectInfo",
      "outputs": [],
      "stateMutability": "nonpayable",
      "type": "function"
    },
    {
      "inputs": [
        {
          "internalType": "address",
          "name": "",
          "type": "address"
        }
      ],
      "name": "userCompletedTestsCount",
      "outputs": [
        {
          "internalType": "uint256",
          "name": "",
          "type": "uint256"
        }
      ],
      "stateMutability": "view",
      "type": "function"
    }
  ],
  "bytecode": "0x6080604052678ac7230489e800006003556802b5e3af16b18800006004553480156200002a57600080fd5b506200004b6200003f6200005160201b60201c565b6200005960201b60201c565b6200011d565b600033905090565b60008060009054906101000a900473ffffffffffffffffffffffffffffffffffffffff169050816000806101000a81548173ffffffffffffffffffffffffffffffffffffffff021916908373ffffffffffffffffffffffffffffffffffffffff1602179055508173ffffffffffffffffffffffffffffffffffffffff168173ffffffffffffffffffffffffffffffffffffffff167f8be0079c531659141344cd1fd0a4f28419497f9722a3daafe3b4186f6b6457e060405160405180910390a35050565b615321806200012d6000396000f3fe6080604052600436106101ed5760003560e01c8063715018a61161010d57806395d50946116100a0578063bb7ff0121161006f578063bb7ff0121461078a578063c5281070146107c7578063c98bfe34146107f0578063f2fde38b1461082d578063fabf596814610856576101ed565b806395d50946146106965780639e73c960146106d3578063a3de1c5f14610710578063b2c4cf5a1461074d576101ed565b80638884228e116100dc5780638884228e146105dc5780638da5cb5b1461060557806393dc12e61461063057806393ef980f14610659576101ed565b8063715018a61461055357806373381c6a1461056a5780637fdc79a01461059557806380d03829146105b1576101ed565b8063445da8a0116101855780634f7cf790116101545780634f7cf7901461045c57806351283dda14610499578063535a9cc1146104d65780636386c1c714610516576101ed565b8063445da8a0146103a257806344f5d940146103cd57806348f8655f146103f65780634def19de1461041f576101ed565b806308b6740d116101c157806308b6740d146102c057806316074c3f146102fd5780631b26a7a51461033a5780632b925b2514610377576101ed565b8062f16b51146101f2578063012783831461022f57806304ff0c48146102585780630839e93714610295575b600080fd5b3480156101fe57600080fd5b5061021960048036038101906102149190613d26565b610893565b6040516102269190614a2b565b60405180910390f35b34801561023b57600080fd5b5061025660048036038101906102519190613d4f565b6108ab565b005b34801561026457600080fd5b5061027f600480360381019061027a9190613d26565b610b61565b60405161028c9190614637565b60405180910390f35b3480156102a157600080fd5b506102aa610c68565b6040516102b79190614615565b60405180910390f35b3480156102cc57600080fd5b506102e760048036038101906102e29190613d26565b610e09565b6040516102f49190614a2b565b60405180910390f35b34801561030957600080fd5b50610324600480360381019061031f9190613d26565b610e21565b6040516103319190614615565b60405180910390f35b34801561034657600080fd5b50610361600480360381019061035c9190613bc0565b611038565b60405161036e9190614a2b565b60405180910390f35b34801561038357600080fd5b5061038c611050565b6040516103999190614a2b565b60405180910390f35b3480156103ae57600080fd5b506103b7611056565b6040516103c49190614a2b565b60405180910390f35b3480156103d957600080fd5b506103f460048036038101906103ef9190613d4f565b611060565b005b34801561040257600080fd5b5061041d60048036038101906104189190613d26565b6112d4565b005b34801561042b57600080fd5b5061044660048036038101906104419190613bc0565b61135a565b6040516104539190614a2b565b60405180910390f35b34801561046857600080fd5b50610483600480360381019061047e9190613d26565b6113a3565b60405161049091906145fa565b60405180910390f35b3480156104a557600080fd5b506104c060048036038101906104bb9190613d26565b6113d6565b6040516104cd91906149e7565b60405180910390f35b3480156104e257600080fd5b506104fd60048036038101906104f89190613d26565b611611565b60405161050d9493929190614659565b60405180910390f35b34801561052257600080fd5b5061053d60048036038101906105389190613bc0565b6118f9565b60405161054a9190614a09565b60405180910390f35b34801561055f57600080fd5b50610568611cef565b005b34801561057657600080fd5b5061057f611d77565b60405161058c9190614a2b565b60405180910390f35b6105af60048036038101906105aa9190613d26565b611d7d565b005b3480156105bd57600080fd5b506105c6612027565b6040516105d39190614615565b60405180910390f35b3480156105e857600080fd5b5061060360048036038101906105fe9190613d26565b61212a565b005b34801561061157600080fd5b5061061a6124ab565b60405161062791906145fa565b60405180910390f35b34801561063c57600080fd5b5061065760048036038101906106529190613d26565b6124d4565b005b34801561066557600080fd5b50610680600480360381019061067b9190613c25565b6128c2565b60405161068d9190614637565b60405180910390f35b3480156106a257600080fd5b506106bd60048036038101906106b89190613bc0565b612ba7565b6040516106ca9190614a2b565b60405180910390f35b3480156106df57600080fd5b506106fa60048036038101906106f59190613d26565b612bbf565b6040516107079190614a2b565b60405180910390f35b34801561071c57600080fd5b5061073760048036038101906107329190613d26565b612bd7565b60405161074491906149c5565b60405180910390f35b34801561075957600080fd5b50610774600480360381019061076f9190613bc0565b612e9c565b6040516107819190614a2b565b60405180910390f35b34801561079657600080fd5b506107b160048036038101906107ac9190613d26565b612eb4565b6040516107be91906145fa565b60405180910390f35b3480156107d357600080fd5b506107ee60048036038101906107e99190613e61565b612ee7565b005b3480156107fc57600080fd5b5061081760048036038101906108129190613be9565b613173565b6040516108249190614615565b60405180910390f35b34801561083957600080fd5b50610854600480360381019061084f9190613bc0565b613397565b005b34801561086257600080fd5b5061087d60048036038101906108789190613d26565b61348f565b60405161088a91906149c5565b60405180910390f35b600e6020528060005260406000206000915090505481565b6108b56001613741565b88106108f6576040517f08c379a00000000000000000000000000000000000000000000000000000000081526004016108ed906148c5565b60405180910390fd5b3373ffffffffffffffffffffffffffffffffffffffff16600960008a815260200190815260200160002060009054906101000a900473ffffffffffffffffffffffffffffffffffffffff1673ffffffffffffffffffffffffffffffffffffffff1614610997576040517f08c379a000000000000000000000000000000000000000000000000000000000815260040161098e90614845565b60405180910390fd5b6000600860008a815260200190815260200160002060090154146109f0576040517f08c379a00000000000000000000000000000000000000000000000000000000081526004016109e790614785565b60405180910390fd5b854210610a32576040517f08c379a0000000000000000000000000000000000000000000000000000000008152600401610a2990614865565b60405180910390fd5b604051806101400160405280898152602001600860008b81526020019081526020016000206001015481526020018881526020018781526020018681526020018581526020018481526020018381526020018281526020016000815250600860008a815260200190815260200160002060008201518160000155602082015181600101556040820151816002019080519060200190610ad2929190613831565b50606082015181600301556080820151816004019080519060200190610af9929190613831565b5060a0820151816005019080519060200190610b16929190613831565b5060c0820151816006019080519060200190610b33929190613831565b5060e08201518160070155610100820151816008015561012082015181600901559050505050505050505050565b6060600660006009600085815260200190815260200160002060009054906101000a900473ffffffffffffffffffffffffffffffffffffffff1673ffffffffffffffffffffffffffffffffffffffff1673ffffffffffffffffffffffffffffffffffffffff1681526020019081526020016000206001018054610be390614d06565b80601f0160208091040260200160405190810160405280929190818152602001828054610c0f90614d06565b8015610c5c5780601f10610c3157610100808354040283529160200191610c5c565b820191906000526020600020905b815481529060010190602001808311610c3f57829003601f168201915b50505050509050919050565b60606000600a60003373ffffffffffffffffffffffffffffffffffffffff1673ffffffffffffffffffffffffffffffffffffffff1681526020019081526020016000205467ffffffffffffffff811115610ceb577f4e487b7100000000000000000000000000000000000000000000000000000000600052604160045260246000fd5b604051908082528060200260200182016040528015610d195781602001602082028036833780820191505090505b5090506000805b610d2a6001613741565b811015610e00573373ffffffffffffffffffffffffffffffffffffffff166009600083815260200190815260200160002060009054906101000a900473ffffffffffffffffffffffffffffffffffffffff1673ffffffffffffffffffffffffffffffffffffffff161415610ded5780838381518110610dd2577f4e487b7100000000000000000000000000000000000000000000000000000000600052603260045260246000fd5b6020026020010181815250508180610de990614d69565b9250505b8080610df890614d69565b915050610d20565b50819250505090565b600b6020528060005260406000206000915090505481565b6060610e2d6001613741565b8210610e6e576040517f08c379a0000000000000000000000000000000000000000000000000000000008152600401610e6590614965565b60405180910390fd5b3373ffffffffffffffffffffffffffffffffffffffff166009600084815260200190815260200160002060009054906101000a900473ffffffffffffffffffffffffffffffffffffffff1673ffffffffffffffffffffffffffffffffffffffff1614610f0f576040517f08c379a0000000000000000000000000000000000000000000000000000000008152600401610f0690614925565b60405180910390fd5b6000601060008481526020019081526020016000205467ffffffffffffffff811115610f64577f4e487b7100000000000000000000000000000000000000000000000000000000600052604160045260246000fd5b604051908082528060200260200182016040528015610f925781602001602082028036833780820191505090505b5090506000805b610fa36002613741565b81101561102d5784600e600083815260200190815260200160002054141561101a5780838381518110610fff577f4e487b7100000000000000000000000000000000000000000000000000000000600052603260045260246000fd5b602002602001018181525050818061101690614d69565b9250505b808061102590614d69565b915050610f99565b508192505050919050565b600a6020528060005260406000206000915090505481565b60045481565b6000600354905090565b600660003373ffffffffffffffffffffffffffffffffffffffff1673ffffffffffffffffffffffffffffffffffffffff16815260200190815260200160002060070160009054906101000a900460ff166110ef576040517f08c379a00000000000000000000000000000000000000000000000000000000081526004016110e6906147c5565b60405180910390fd5b6040518061014001604052806111056001613741565b815260200189815260200188815260200187815260200186815260200185815260200184815260200183815260200182815260200160008152506008600061114d6001613741565b81526020019081526020016000206000820151816000015560208201518160010155604082015181600201908051906020019061118b929190613831565b506060820151816003015560808201518160040190805190602001906111b2929190613831565b5060a08201518160050190805190602001906111cf929190613831565b5060c08201518160060190805190602001906111ec929190613831565b5060e0820151816007015561010082015181600801556101208201518160090155905050336009600061121f6001613741565b815260200190815260200160002060006101000a81548173ffffffffffffffffffffffffffffffffffffffff021916908373ffffffffffffffffffffffffffffffffffffffff160217905550600a60003373ffffffffffffffffffffffffffffffffffffffff1673ffffffffffffffffffffffffffffffffffffffff16815260200190815260200160002060008154809291906112bb90614d69565b91905055506112ca600161374f565b5050505050505050565b6112dc613765565b73ffffffffffffffffffffffffffffffffffffffff166112fa6124ab565b73ffffffffffffffffffffffffffffffffffffffff1614611350576040517f08c379a0000000000000000000000000000000000000000000000000000000008152600401611347906148a5565b60405180910390fd5b8060038190555050565b6000600760008373ffffffffffffffffffffffffffffffffffffffff1673ffffffffffffffffffffffffffffffffffffffff168152602001908152602001600020549050919050565b60096020528060005260406000206000915054906101000a900473ffffffffffffffffffffffffffffffffffffffff1681565b6113de6138b7565b6113e86002613741565b8210611429576040517f08c379a0000000000000000000000000000000000000000000000000000000008152600401611420906146c5565b60405180910390fd5b3373ffffffffffffffffffffffffffffffffffffffff16600d600084815260200190815260200160002060009054906101000a900473ffffffffffffffffffffffffffffffffffffffff1673ffffffffffffffffffffffffffffffffffffffff16148061150757503373ffffffffffffffffffffffffffffffffffffffff1660096000600e600086815260200190815260200160002054815260200190815260200160002060009054906101000a900473ffffffffffffffffffffffffffffffffffffffff1673ffffffffffffffffffffffffffffffffffffffff16145b611546576040517f08c379a000000000000000000000000000000000000000000000000000000000815260040161153d90614805565b60405180910390fd5b600c6000838152602001908152602001600020604051806060016040529081600082015481526020016001820154815260200160028201805461158890614d06565b80601f01602080910402602001604051908101604052809291908181526020018280546115b490614d06565b80156116015780601f106115d657610100808354040283529160200191611601565b820191906000526020600020905b8154815290600101906020018083116115e457829003601f168201915b5050505050815250509050919050565b6060600080600060096000600e600088815260200190815260200160002054815260200190815260200160002060009054906101000a900473ffffffffffffffffffffffffffffffffffffffff1673ffffffffffffffffffffffffffffffffffffffff163373ffffffffffffffffffffffffffffffffffffffff16146116cc576040517f08c379a00000000000000000000000000000000000000000000000000000000081526004016116c3906148e5565b60405180910390fd5b60066000600d600088815260200190815260200160002060009054906101000a900473ffffffffffffffffffffffffffffffffffffffff1673ffffffffffffffffffffffffffffffffffffffff1673ffffffffffffffffffffffffffffffffffffffff16815260200190815260200160002060010160066000600d600089815260200190815260200160002060009054906101000a900473ffffffffffffffffffffffffffffffffffffffff1673ffffffffffffffffffffffffffffffffffffffff1673ffffffffffffffffffffffffffffffffffffffff1681526020019081526020016000206003015460076000600d60008a815260200190815260200160002060009054906101000a900473ffffffffffffffffffffffffffffffffffffffff1673ffffffffffffffffffffffffffffffffffffffff1673ffffffffffffffffffffffffffffffffffffffff16815260200190815260200160002054600d600089815260200190815260200160002060009054906101000a900473ffffffffffffffffffffffffffffffffffffffff1683805461186a90614d06565b80601f016020809104026020016040519081016040528092919081815260200182805461189690614d06565b80156118e35780601f106118b8576101008083540402835291602001916118e3565b820191906000526020600020905b8154815290600101906020018083116118c657829003601f168201915b5050505050935093509350935093509193509193565b6119016138d8565b600660008373ffffffffffffffffffffffffffffffffffffffff1673ffffffffffffffffffffffffffffffffffffffff168152602001908152602001600020604051806101000160405290816000820160009054906101000a900473ffffffffffffffffffffffffffffffffffffffff1673ffffffffffffffffffffffffffffffffffffffff1673ffffffffffffffffffffffffffffffffffffffff1681526020016001820180546119b290614d06565b80601f01602080910402602001604051908101604052809291908181526020018280546119de90614d06565b8015611a2b5780601f10611a0057610100808354040283529160200191611a2b565b820191906000526020600020905b815481529060010190602001808311611a0e57829003601f168201915b50505050508152602001600282018054611a4490614d06565b80601f0160208091040260200160405190810160405280929190818152602001828054611a7090614d06565b8015611abd5780601f10611a9257610100808354040283529160200191611abd565b820191906000526020600020905b815481529060010190602001808311611aa057829003601f168201915b5050505050815260200160038201548152602001600482018054611ae090614d06565b80601f0160208091040260200160405190810160405280929190818152602001828054611b0c90614d06565b8015611b595780601f10611b2e57610100808354040283529160200191611b59565b820191906000526020600020905b815481529060010190602001808311611b3c57829003601f168201915b5050505050815260200160058201805480602002602001604051908101604052809291908181526020016000905b82821015611c33578382906000526020600020018054611ba690614d06565b80601f0160208091040260200160405190810160405280929190818152602001828054611bd290614d06565b8015611c1f5780601f10611bf457610100808354040283529160200191611c1f565b820191906000526020600020905b815481529060010190602001808311611c0257829003601f168201915b505050505081526020019060010190611b87565b505050508152602001600682018054611c4b90614d06565b80601f0160208091040260200160405190810160405280929190818152602001828054611c7790614d06565b8015611cc45780601f10611c9957610100808354040283529160200191611cc4565b820191906000526020600020905b815481529060010190602001808311611ca757829003601f168201915b505050505081526020016007820160009054906101000a900460ff1615151515815250509050919050565b611cf7613765565b73ffffffffffffffffffffffffffffffffffffffff16611d156124ab565b73ffffffffffffffffffffffffffffffffffffffff1614611d6b576040517f08c379a0000000000000000000000000000000000000000000000000000000008152600401611d62906148a5565b60405180910390fd5b611d75600061376d565b565b60035481565b600454600860008381526020019081526020016000206008015411611dd7576040517f08c379a0000000000000000000000000000000000000000000000000000000008152600401611dce90614825565b60405180910390fd5b6003546008600083815260200190815260200160002060080154611dfb9190614b67565b341015611e3d576040517f08c379a0000000000000000000000000000000000000000000000000000000008152600401611e3490614945565b60405180910390fd5b611e476001613741565b8110611e88576040517f08c379a0000000000000000000000000000000000000000000000000000000008152600401611e7f906148c5565b60405180910390fd5b3373ffffffffffffffffffffffffffffffffffffffff166009600083815260200190815260200160002060009054906101000a900473ffffffffffffffffffffffffffffffffffffffff1673ffffffffffffffffffffffffffffffffffffffff1614611f29576040517f08c379a0000000000000000000000000000000000000000000000000000000008152600401611f2090614845565b60405180910390fd5b6000600860008381526020019081526020016000206009015414611f82576040517f08c379a0000000000000000000000000000000000000000000000000000000008152600401611f7990614785565b60405180910390fd5b60086000828152602001908152602001600020600301544210611fda576040517f08c379a0000000000000000000000000000000000000000000000000000000008152600401611fd190614725565b60405180910390fd5b600160086000838152602001908152602001600020600901819055506008600082815260200190815260200160002060080154600b60008381526020019081526020016000208190555050565b606060006120356001613741565b67ffffffffffffffff811115612074577f4e487b7100000000000000000000000000000000000000000000000000000000600052604160045260246000fd5b6040519080825280602002602001820160405280156120a25781602001602082028036833780820191505090505b5090506000805b6120b36001613741565b81101561212157808383815181106120f4577f4e487b7100000000000000000000000000000000000000000000000000000000600052603260045260246000fd5b602002602001018181525050818061210b90614d69565b925050808061211990614d69565b9150506120a9565b50819250505090565b600660003373ffffffffffffffffffffffffffffffffffffffff1673ffffffffffffffffffffffffffffffffffffffff16815260200190815260200160002060070160009054906101000a900460ff166121b9576040517f08c379a00000000000000000000000000000000000000000000000000000000081526004016121b090614705565b60405180910390fd5b601060008281526020019081526020016000205460086000838152602001908152602001600020600701541015612225576040517f08c379a000000000000000000000000000000000000000000000000000000000815260040161221c90614985565b60405180910390fd5b3373ffffffffffffffffffffffffffffffffffffffff166009600083815260200190815260200160002060009054906101000a900473ffffffffffffffffffffffffffffffffffffffff1673ffffffffffffffffffffffffffffffffffffffff1614156122c7576040517f08c379a00000000000000000000000000000000000000000000000000000000081526004016122be906146e5565b60405180910390fd5b6001600860008381526020019081526020016000206009015414612320576040517f08c379a000000000000000000000000000000000000000000000000000000000815260040161231790614885565b60405180910390fd5b60405180606001604052806123356002613741565b81526020016000815260200160405180602001604052806000815250815250600c60006123626002613741565b8152602001908152602001600020600082015181600001556020820151816001015560408201518160020190805190602001906123a0929190613831565b5090505033600d60006123b36002613741565b815260200190815260200160002060006101000a81548173ffffffffffffffffffffffffffffffffffffffff021916908373ffffffffffffffffffffffffffffffffffffffff16021790555080600e600061240e6002613741565b815260200190815260200160002081905550600f60003373ffffffffffffffffffffffffffffffffffffffff1673ffffffffffffffffffffffffffffffffffffffff168152602001908152602001600020600081548092919061247090614d69565b919050555060106000828152602001908152602001600020600081548092919061249990614d69565b91905055506124a8600261374f565b50565b60008060009054906101000a900473ffffffffffffffffffffffffffffffffffffffff16905090565b3373ffffffffffffffffffffffffffffffffffffffff166009600083815260200190815260200160002060009054906101000a900473ffffffffffffffffffffffffffffffffffffffff1673ffffffffffffffffffffffffffffffffffffffff1614612575576040517f08c379a000000000000000000000000000000000000000000000000000000000815260040161256c90614905565b60405180910390fd5b61257f6001613741565b81106125c0576040517f08c379a00000000000000000000000000000000000000000000000000000000081526004016125b7906147e5565b60405180910390fd5b60086000828152602001908152602001600020600301544210612618576040517f08c379a000000000000000000000000000000000000000000000000000000000815260040161260f90614745565b60405180910390fd5b6001600860008381526020019081526020016000206009015414612671576040517f08c379a0000000000000000000000000000000000000000000000000000000008152600401612668906147a5565b60405180910390fd5b60005b61267e6002613741565b81101561280b5781600e60008381526020019081526020016000205414156127f8576000600c60008381526020019081526020016000206001015414156127f757600060086000600e60008581526020019081526020016000205481526020019081526020016000206007015460086000600e60008681526020019081526020016000205481526020019081526020016000206008015461271f9190614bbd565b9050600d600083815260200190815260200160002060009054906101000a900473ffffffffffffffffffffffffffffffffffffffff1673ffffffffffffffffffffffffffffffffffffffff166108fc606460058461277d9190614bee565b6127879190614bbd565b9081150290604051600060405180830381858888f193505050501580156127b2573d6000803e3d6000fd5b5060646005826127c29190614bee565b6127cc9190614bbd565b600b600085815260200190815260200160002060008282546127ee9190614c48565b92505081905550505b5b808061280390614d69565b915050612674565b503373ffffffffffffffffffffffffffffffffffffffff166108fc600b6000848152602001908152602001600020549081150290604051600060405180830381858888f19350505050158015612865573d6000803e3d6000fd5b50600b600082815260200190815260200160002054600b6000838152602001908152602001600020600082825461289c9190614c48565b925050819055506002600860008381526020019081526020016000206009018190555050565b60606000600660003373ffffffffffffffffffffffffffffffffffffffff1673ffffffffffffffffffffffffffffffffffffffff16815260200190815260200160002060070160009054906101000a900460ff16156129245760019050612988565b6005339080600181540180825580915050600190039060005260206000200160009091909190916101000a81548173ffffffffffffffffffffffffffffffffffffffff021916908373ffffffffffffffffffffffffffffffffffffffff1602179055505b6040518061010001604052803373ffffffffffffffffffffffffffffffffffffffff16815260200189815260200188815260200187815260200186815260200185815260200184815260200160011515815250600660003373ffffffffffffffffffffffffffffffffffffffff1673ffffffffffffffffffffffffffffffffffffffff16815260200190815260200160002060008201518160000160006101000a81548173ffffffffffffffffffffffffffffffffffffffff021916908373ffffffffffffffffffffffffffffffffffffffff1602179055506020820151816001019080519060200190612a7d929190613831565b506040820151816002019080519060200190612a9a929190613831565b50606082015181600301556080820151816004019080519060200190612ac1929190613831565b5060a0820151816005019080519060200190612ade929190613935565b5060c0820151816006019080519060200190612afb929190613831565b5060e08201518160070160006101000a81548160ff0219169083151502179055509050508015612b63576040518060400160405280601581526020017f5375636365737366756c6c792075706461746564210000000000000000000000815250915050612b9d565b6040518060400160405280601581526020017f5375636365737366756c6c7920637265617465642100000000000000000000008152509150505b9695505050505050565b600f6020528060005260406000206000915090505481565b60106020528060005260406000206000915090505481565b612bdf613995565b60086000600e6000858152602001908152602001600020548152602001908152602001600020604051806101400160405290816000820154815260200160018201548152602001600282018054612c3590614d06565b80601f0160208091040260200160405190810160405280929190818152602001828054612c6190614d06565b8015612cae5780601f10612c8357610100808354040283529160200191612cae565b820191906000526020600020905b815481529060010190602001808311612c9157829003601f168201915b5050505050815260200160038201548152602001600482018054612cd190614d06565b80601f0160208091040260200160405190810160405280929190818152602001828054612cfd90614d06565b8015612d4a5780601f10612d1f57610100808354040283529160200191612d4a565b820191906000526020600020905b815481529060010190602001808311612d2d57829003601f168201915b50505050508152602001600582018054612d6390614d06565b80601f0160208091040260200160405190810160405280929190818152602001828054612d8f90614d06565b8015612ddc5780601f10612db157610100808354040283529160200191612ddc565b820191906000526020600020905b815481529060010190602001808311612dbf57829003601f168201915b50505050508152602001600682018054612df590614d06565b80601f0160208091040260200160405190810160405280929190818152602001828054612e2190614d06565b8015612e6e5780601f10612e4357610100808354040283529160200191612e6e565b820191906000526020600020905b815481529060010190602001808311612e5157829003601f168201915b5050505050815260200160078201548152602001600882015481526020016009820154815250509050919050565b60076020528060005260406000206000915090505481565b600d6020528060005260406000206000915054906101000a900473ffffffffffffffffffffffffffffffffffffffff1681565b3373ffffffffffffffffffffffffffffffffffffffff16600d600085815260200190815260200160002060009054906101000a900473ffffffffffffffffffffffffffffffffffffffff1673ffffffffffffffffffffffffffffffffffffffff1614612f88576040517f08c379a0000000000000000000000000000000000000000000000000000000008152600401612f7f906146a5565b60405180910390fd5b6001600c6000858152602001908152602001600020600101541415612fe2576040517f08c379a0000000000000000000000000000000000000000000000000000000008152600401612fd9906149a5565b60405180910390fd5b80600c6000858152602001908152602001600020600201908051906020019061300c929190613831565b50600182141561316e57600060086000600e60008781526020019081526020016000205481526020019081526020016000206007015460086000600e6000888152602001908152602001600020548152602001908152602001600020600801546130769190614bbd565b90503373ffffffffffffffffffffffffffffffffffffffff166108fc829081150290604051600060405180830381858888f193505050501580156130be573d6000803e3d6000fd5b5082600c600086815260200190815260200160002060010181905550600760003373ffffffffffffffffffffffffffffffffffffffff1673ffffffffffffffffffffffffffffffffffffffff168152602001908152602001600020600081548092919061312a90614d69565b919050555080600b6000600e600088815260200190815260200160002054815260200190815260200160002060008282546131659190614c48565b92505081905550505b505050565b60606000600f60008573ffffffffffffffffffffffffffffffffffffffff1673ffffffffffffffffffffffffffffffffffffffff1681526020019081526020016000205467ffffffffffffffff8111156131f6577f4e487b7100000000000000000000000000000000000000000000000000000000600052604160045260246000fd5b6040519080825280602002602001820160405280156132245781602001602082028036833780820191505090505b5090506000805b6132356002613741565b81101561338b578573ffffffffffffffffffffffffffffffffffffffff16600d600083815260200190815260200160002060009054906101000a900473ffffffffffffffffffffffffffffffffffffffff1673ffffffffffffffffffffffffffffffffffffffff161415613378578415613322576001600c600083815260200190815260200160002060010154141561331d5780838381518110613302577f4e487b7100000000000000000000000000000000000000000000000000000000600052603260045260246000fd5b602002602001018181525050818061331990614d69565b9250505b613377565b8083838151811061335c577f4e487b7100000000000000000000000000000000000000000000000000000000600052603260045260246000fd5b602002602001018181525050818061337390614d69565b9250505b5b808061338390614d69565b91505061322b565b50819250505092915050565b61339f613765565b73ffffffffffffffffffffffffffffffffffffffff166133bd6124ab565b73ffffffffffffffffffffffffffffffffffffffff1614613413576040517f08c379a000000000000000000000000000000000000000000000000000000000815260040161340a906148a5565b60405180910390fd5b600073ffffffffffffffffffffffffffffffffffffffff168173ffffffffffffffffffffffffffffffffffffffff161415613483576040517f08c379a000000000000000000000000000000000000000000000000000000000815260040161347a90614765565b60405180910390fd5b61348c8161376d565b50565b613497613995565b600860008381526020019081526020016000206040518061014001604052908160008201548152602001600182015481526020016002820180546134da90614d06565b80601f016020809104026020016040519081016040528092919081815260200182805461350690614d06565b80156135535780601f1061352857610100808354040283529160200191613553565b820191906000526020600020905b81548152906001019060200180831161353657829003601f168201915b505050505081526020016003820154815260200160048201805461357690614d06565b80601f01602080910402602001604051908101604052809291908181526020018280546135a290614d06565b80156135ef5780601f106135c4576101008083540402835291602001916135ef565b820191906000526020600020905b8154815290600101906020018083116135d257829003601f168201915b5050505050815260200160058201805461360890614d06565b80601f016020809104026020016040519081016040528092919081815260200182805461363490614d06565b80156136815780601f1061365657610100808354040283529160200191613681565b820191906000526020600020905b81548152906001019060200180831161366457829003601f168201915b5050505050815260200160068201805461369a90614d06565b80601f01602080910402602001604051908101604052809291908181526020018280546136c690614d06565b80156137135780601f106136e857610100808354040283529160200191613713565b820191906000526020600020905b8154815290600101906020018083116136f657829003601f168201915b5050505050815260200160078201548152602001600882015481526020016009820154815250509050919050565b600081600001549050919050565b6001816000016000828254019250508190555050565b600033905090565b60008060009054906101000a900473ffffffffffffffffffffffffffffffffffffffff169050816000806101000a81548173ffffffffffffffffffffffffffffffffffffffff021916908373ffffffffffffffffffffffffffffffffffffffff1602179055508173ffffffffffffffffffffffffffffffffffffffff168173ffffffffffffffffffffffffffffffffffffffff167f8be0079c531659141344cd1fd0a4f28419497f9722a3daafe3b4186f6b6457e060405160405180910390a35050565b82805461383d90614d06565b90600052602060002090601f01602090048101928261385f57600085556138a6565b82601f1061387857805160ff19168380011785556138a6565b828001600101855582156138a6579182015b828111156138a557825182559160200191906001019061388a565b5b5090506138b391906139e8565b5090565b60405180606001604052806000815260200160008152602001606081525090565b604051806101000160405280600073ffffffffffffffffffffffffffffffffffffffff1681526020016060815260200160608152602001600081526020016060815260200160608152602001606081526020016000151581525090565b828054828255906000526020600020908101928215613984579160200282015b82811115613983578251829080519060200190613973929190613831565b5091602001919060010190613955565b5b5090506139919190613a05565b5090565b604051806101400160405280600081526020016000815260200160608152602001600081526020016060815260200160608152602001606081526020016000815260200160008152602001600081525090565b5b80821115613a015760008160009055506001016139e9565b5090565b5b80821115613a255760008181613a1c9190613a29565b50600101613a06565b5090565b508054613a3590614d06565b6000825580601f10613a475750613a66565b601f016020900490600052602060002090810190613a6591906139e8565b5b50565b6000613a7c613a7784614a6b565b614a46565b90508083825260208201905082856020860282011115613a9b57600080fd5b60005b85811015613ae557813567ffffffffffffffff811115613abd57600080fd5b808601613aca8982613b81565b85526020850194506020840193505050600181019050613a9e565b5050509392505050565b6000613b02613afd84614a97565b614a46565b905082815260208101848484011115613b1a57600080fd5b613b25848285614cc4565b509392505050565b600081359050613b3c816152a6565b92915050565b600082601f830112613b5357600080fd5b8135613b63848260208601613a69565b91505092915050565b600081359050613b7b816152bd565b92915050565b600082601f830112613b9257600080fd5b8135613ba2848260208601613aef565b91505092915050565b600081359050613bba816152d4565b92915050565b600060208284031215613bd257600080fd5b6000613be084828501613b2d565b91505092915050565b60008060408385031215613bfc57600080fd5b6000613c0a85828601613b2d565b9250506020613c1b85828601613b6c565b9150509250929050565b60008060008060008060c08789031215613c3e57600080fd5b600087013567ffffffffffffffff811115613c5857600080fd5b613c6489828a01613b81565b965050602087013567ffffffffffffffff811115613c8157600080fd5b613c8d89828a01613b81565b9550506040613c9e89828a01613bab565b945050606087013567ffffffffffffffff811115613cbb57600080fd5b613cc789828a01613b81565b935050608087013567ffffffffffffffff811115613ce457600080fd5b613cf089828a01613b42565b92505060a087013567ffffffffffffffff811115613d0d57600080fd5b613d1989828a01613b81565b9150509295509295509295565b600060208284031215613d3857600080fd5b6000613d4684828501613bab565b91505092915050565b600080600080600080600080610100898b031215613d6c57600080fd5b6000613d7a8b828c01613bab565b985050602089013567ffffffffffffffff811115613d9757600080fd5b613da38b828c01613b81565b9750506040613db48b828c01613bab565b965050606089013567ffffffffffffffff811115613dd157600080fd5b613ddd8b828c01613b81565b955050608089013567ffffffffffffffff811115613dfa57600080fd5b613e068b828c01613b81565b94505060a089013567ffffffffffffffff811115613e2357600080fd5b613e2f8b828c01613b81565b93505060c0613e408b828c01613bab565b92505060e0613e518b828c01613bab565b9150509295985092959890939650565b600080600060608486031215613e7657600080fd5b6000613e8486828701613bab565b9350506020613e9586828701613bab565b925050604084013567ffffffffffffffff811115613eb257600080fd5b613ebe86828701613b81565b9150509250925092565b6000613ed48383613ff4565b905092915050565b6000613ee883836145dc565b60208301905092915050565b613efd81614c7c565b82525050565b613f0c81614c7c565b82525050565b6000613f1d82614ae8565b613f278185614b23565b935083602082028501613f3985614ac8565b8060005b85811015613f755784840389528151613f568582613ec8565b9450613f6183614b09565b925060208a01995050600181019050613f3d565b50829750879550505050505092915050565b6000613f9282614af3565b613f9c8185614b34565b9350613fa783614ad8565b8060005b83811015613fd8578151613fbf8882613edc565b9750613fca83614b16565b925050600181019050613fab565b5085935050505092915050565b613fee81614c8e565b82525050565b6000613fff82614afe565b6140098185614b45565b9350614019818560208601614cd3565b61402281614e6e565b840191505092915050565b600061403882614afe565b6140428185614b56565b9350614052818560208601614cd3565b61405b81614e6e565b840191505092915050565b6000614073600383614b56565b915061407e82614e7f565b602082019050919050565b6000614096600483614b56565b91506140a182614ea8565b602082019050919050565b60006140b9600383614b56565b91506140c482614ed1565b602082019050919050565b60006140dc600383614b56565b91506140e782614efa565b602082019050919050565b60006140ff600383614b56565b915061410a82614f23565b602082019050919050565b6000614122600383614b56565b915061412d82614f4c565b602082019050919050565b6000614145602683614b56565b915061415082614f75565b604082019050919050565b6000614168600383614b56565b915061417382614fc4565b602082019050919050565b600061418b600383614b56565b915061419682614fed565b602082019050919050565b60006141ae600383614b56565b91506141b982615016565b602082019050919050565b60006141d1600483614b56565b91506141dc8261503f565b602082019050919050565b60006141f4600383614b56565b91506141ff82615068565b602082019050919050565b6000614217600383614b56565b915061422282615091565b602082019050919050565b600061423a600383614b56565b9150614245826150ba565b602082019050919050565b600061425d600383614b56565b9150614268826150e3565b602082019050919050565b6000614280600383614b56565b915061428b8261510c565b602082019050919050565b60006142a3602083614b56565b91506142ae82615135565b602082019050919050565b60006142c6600483614b56565b91506142d18261515e565b602082019050919050565b60006142e9600383614b56565b91506142f482615187565b602082019050919050565b600061430c600383614b56565b9150614317826151b0565b602082019050919050565b600061432f600383614b56565b915061433a826151d9565b602082019050919050565b6000614352600383614b56565b915061435d82615202565b602082019050919050565b6000614375600483614b56565b91506143808261522b565b602082019050919050565b6000614398600583614b56565b91506143a382615254565b602082019050919050565b60006143bb600383614b56565b91506143c68261527d565b602082019050919050565b6000610140830160008301516143ea60008601826145dc565b5060208301516143fd60208601826145dc565b50604083015184820360408601526144158282613ff4565b915050606083015161442a60608601826145dc565b50608083015184820360808601526144428282613ff4565b91505060a083015184820360a086015261445c8282613ff4565b91505060c083015184820360c08601526144768282613ff4565b91505060e083015161448b60e08601826145dc565b506101008301516144a06101008601826145dc565b506101208301516144b56101208601826145dc565b508091505092915050565b60006060830160008301516144d860008601826145dc565b5060208301516144eb60208601826145dc565b50604083015184820360408601526145038282613ff4565b9150508091505092915050565b6000610100830160008301516145296000860182613ef4565b50602083015184820360208601526145418282613ff4565b9150506040830151848203604086015261455b8282613ff4565b915050606083015161457060608601826145dc565b50608083015184820360808601526145888282613ff4565b91505060a083015184820360a08601526145a28282613f12565b91505060c083015184820360c08601526145bc8282613ff4565b91505060e08301516145d160e0860182613fe5565b508091505092915050565b6145e581614cba565b82525050565b6145f481614cba565b82525050565b600060208201905061460f6000830184613f03565b92915050565b6000602082019050818103600083015261462f8184613f87565b905092915050565b60006020820190508181036000830152614651818461402d565b905092915050565b60006080820190508181036000830152614673818761402d565b905061468260208301866145eb565b61468f60408301856145eb565b61469c6060830184613f03565b95945050505050565b600060208201905081810360008301526146be81614066565b9050919050565b600060208201905081810360008301526146de81614089565b9050919050565b600060208201905081810360008301526146fe816140ac565b9050919050565b6000602082019050818103600083015261471e816140cf565b9050919050565b6000602082019050818103600083015261473e816140f2565b9050919050565b6000602082019050818103600083015261475e81614115565b9050919050565b6000602082019050818103600083015261477e81614138565b9050919050565b6000602082019050818103600083015261479e8161415b565b9050919050565b600060208201905081810360008301526147be8161417e565b9050919050565b600060208201905081810360008301526147de816141a1565b9050919050565b600060208201905081810360008301526147fe816141c4565b9050919050565b6000602082019050818103600083015261481e816141e7565b9050919050565b6000602082019050818103600083015261483e8161420a565b9050919050565b6000602082019050818103600083015261485e8161422d565b9050919050565b6000602082019050818103600083015261487e81614250565b9050919050565b6000602082019050818103600083015261489e81614273565b9050919050565b600060208201905081810360008301526148be81614296565b9050919050565b600060208201905081810360008301526148de816142b9565b9050919050565b600060208201905081810360008301526148fe816142dc565b9050919050565b6000602082019050818103600083015261491e816142ff565b9050919050565b6000602082019050818103600083015261493e81614322565b9050919050565b6000602082019050818103600083015261495e81614345565b9050919050565b6000602082019050818103600083015261497e81614368565b9050919050565b6000602082019050818103600083015261499e8161438b565b9050919050565b600060208201905081810360008301526149be816143ae565b9050919050565b600060208201905081810360008301526149df81846143d1565b905092915050565b60006020820190508181036000830152614a0181846144c0565b905092915050565b60006020820190508181036000830152614a238184614510565b905092915050565b6000602082019050614a4060008301846145eb565b92915050565b6000614a50614a61565b9050614a5c8282614d38565b919050565b6000604051905090565b600067ffffffffffffffff821115614a8657614a85614e3f565b5b602082029050602081019050919050565b600067ffffffffffffffff821115614ab257614ab1614e3f565b5b614abb82614e6e565b9050602081019050919050565b6000819050602082019050919050565b6000819050602082019050919050565b600081519050919050565b600081519050919050565b600081519050919050565b6000602082019050919050565b6000602082019050919050565b600082825260208201905092915050565b600082825260208201905092915050565b600082825260208201905092915050565b600082825260208201905092915050565b6000614b7282614cba565b9150614b7d83614cba565b9250827fffffffffffffffffffffffffffffffffffffffffffffffffffffffffffffffff03821115614bb257614bb1614db2565b5b828201905092915050565b6000614bc882614cba565b9150614bd383614cba565b925082614be357614be2614de1565b5b828204905092915050565b6000614bf982614cba565b9150614c0483614cba565b9250817fffffffffffffffffffffffffffffffffffffffffffffffffffffffffffffffff0483118215151615614c3d57614c3c614db2565b5b828202905092915050565b6000614c5382614cba565b9150614c5e83614cba565b925082821015614c7157614c70614db2565b5b828203905092915050565b6000614c8782614c9a565b9050919050565b60008115159050919050565b600073ffffffffffffffffffffffffffffffffffffffff82169050919050565b6000819050919050565b82818337600083830152505050565b60005b83811015614cf1578082015181840152602081019050614cd6565b83811115614d00576000848401525b50505050565b60006002820490506001821680614d1e57607f821691505b60208210811415614d3257614d31614e10565b5b50919050565b614d4182614e6e565b810181811067ffffffffffffffff82111715614d6057614d5f614e3f565b5b80604052505050565b6000614d7482614cba565b91507fffffffffffffffffffffffffffffffffffffffffffffffffffffffffffffffff821415614da757614da6614db2565b5b600182019050919050565b7f4e487b7100000000000000000000000000000000000000000000000000000000600052601160045260246000fd5b7f4e487b7100000000000000000000000000000000000000000000000000000000600052601260045260246000fd5b7f4e487b7100000000000000000000000000000000000000000000000000000000600052602260045260246000fd5b7f4e487b7100000000000000000000000000000000000000000000000000000000600052604160045260246000fd5b6000601f19601f8301169050919050565b7f4130350000000000000000000000000000000000000000000000000000000000600082015250565b7f4e45303400000000000000000000000000000000000000000000000000000000600082015250565b7f4130340000000000000000000000000000000000000000000000000000000000600082015250565b7f4d30320000000000000000000000000000000000000000000000000000000000600082015250565b7f4430320000000000000000000000000000000000000000000000000000000000600082015250565b7f4430330000000000000000000000000000000000000000000000000000000000600082015250565b7f4f776e61626c653a206e6577206f776e657220697320746865207a65726f206160008201527f6464726573730000000000000000000000000000000000000000000000000000602082015250565b7f4330310000000000000000000000000000000000000000000000000000000000600082015250565b7f4330320000000000000000000000000000000000000000000000000000000000600082015250565b7f4d30310000000000000000000000000000000000000000000000000000000000600082015250565b7f4e45303200000000000000000000000000000000000000000000000000000000600082015250565b7f4130370000000000000000000000000000000000000000000000000000000000600082015250565b7f4930310000000000000000000000000000000000000000000000000000000000600082015250565b7f4130320000000000000000000000000000000000000000000000000000000000600082015250565b7f4430310000000000000000000000000000000000000000000000000000000000600082015250565b7f4330330000000000000000000000000000000000000000000000000000000000600082015250565b7f4f776e61626c653a2063616c6c6572206973206e6f7420746865206f776e6572600082015250565b7f4e45303100000000000000000000000000000000000000000000000000000000600082015250565b7f4130310000000000000000000000000000000000000000000000000000000000600082015250565b7f4130330000000000000000000000000000000000000000000000000000000000600082015250565b7f4130360000000000000000000000000000000000000000000000000000000000600082015250565b7f4930320000000000000000000000000000000000000000000000000000000000600082015250565b7f4e45303300000000000000000000000000000000000000000000000000000000600082015250565b7f4d58543031000000000000000000000000000000000000000000000000000000600082015250565b7f4330340000000000000000000000000000000000000000000000000000000000600082015250565b6152af81614c7c565b81146152ba57600080fd5b50565b6152c681614c8e565b81146152d157600080fd5b50565b6152dd81614cba565b81146152e857600080fd5b5056fea2646970667358221220b26c503f97e0e14aacf0607283a2b27271135b58fa7fbef63deea034284797ba64736f6c63430008040033",
  "linkReferences": {},
  "deployedLinkReferences": {}
}