{
  "_format": "hh-sol-artifact-1",
  "contractName": "MidasTest",
  "sourceName": "contracts/MidasTest.sol",
  "abi": [
    {
      "inputs": [],
      "stateMutability": "nonpayable",
      "type": "constructor"
    },
    {
      "anonymous": false,
      "inputs": [
        {
          "indexed": true,
          "internalType": "address",
          "name": "previousOwner",
          "type": "address"
        },
        {
          "indexed": true,
          "internalType": "address",
          "name": "newOwner",
          "type": "address"
        }
      ],
      "name": "OwnershipTransferred",
      "type": "event"
    },
    {
      "inputs": [
        {
          "internalType": "uint256",
          "name": "_projectIdToClose",
          "type": "uint256"
        }
      ],
      "name": "closeProject",
      "outputs": [],
      "stateMutability": "nonpayable",
      "type": "function"
    },
    {
      "inputs": [
        {
          "internalType": "uint256",
          "name": "_createdAt",
          "type": "uint256"
        },
        {
          "internalType": "string",
          "name": "_projectDetails",
          "type": "string"
        },
        {
          "internalType": "uint256",
          "name": "_deadline",
          "type": "uint256"
        },
        {
          "internalType": "string",
          "name": "_testType",
          "type": "string"
        },
        {
          "internalType": "string",
          "name": "_questions",
          "type": "string"
        },
        {
          "internalType": "string",
          "name": "_restrictionsDetail",
          "type": "string"
        },
        {
          "internalType": "uint256",
          "name": "_maxTestersQuantity",
          "type": "uint256"
        },
        {
          "internalType": "uint256",
          "name": "_investment",
          "type": "uint256"
        }
      ],
      "name": "createProject",
      "outputs": [],
      "stateMutability": "nonpayable",
      "type": "function"
    },
    {
      "inputs": [
        {
          "internalType": "uint256",
          "name": "_projectIdToEnroll",
          "type": "uint256"
        }
      ],
      "name": "enrollToProject",
      "outputs": [],
      "stateMutability": "nonpayable",
      "type": "function"
    },
    {
      "inputs": [],
      "name": "getAllProjects",
      "outputs": [
        {
          "internalType": "uint256[]",
          "name": "",
          "type": "uint256[]"
        }
      ],
      "stateMutability": "view",
      "type": "function"
    },
    {
      "inputs": [
        {
          "internalType": "uint256",
          "name": "_testEnrollmentIdToGetUserData",
          "type": "uint256"
        }
      ],
      "name": "getEnrollmentUserData",
      "outputs": [
        {
          "internalType": "string",
          "name": "",
          "type": "string"
        },
        {
          "internalType": "uint256",
          "name": "",
          "type": "uint256"
        },
        {
          "internalType": "uint256",
          "name": "",
          "type": "uint256"
        },
        {
          "internalType": "address",
          "name": "",
          "type": "address"
        }
      ],
      "stateMutability": "view",
      "type": "function"
    },
    {
      "inputs": [],
      "name": "getMidasFee",
      "outputs": [
        {
          "internalType": "uint256",
          "name": "",
          "type": "uint256"
        }
      ],
      "stateMutability": "view",
      "type": "function"
    },
    {
      "inputs": [
        {
          "internalType": "uint256",
          "name": "_projectIdToGet",
          "type": "uint256"
        }
      ],
      "name": "getProjectInfo",
      "outputs": [
        {
          "components": [
            {
              "internalType": "uint256",
              "name": "id",
              "type": "uint256"
            },
            {
              "internalType": "uint256",
              "name": "createdAt",
              "type": "uint256"
            },
            {
              "internalType": "string",
              "name": "projectDetails",
              "type": "string"
            },
            {
              "internalType": "uint256",
              "name": "deadline",
              "type": "uint256"
            },
            {
              "internalType": "string",
              "name": "testType",
              "type": "string"
            },
            {
              "internalType": "string",
              "name": "questions",
              "type": "string"
            },
            {
              "internalType": "string",
              "name": "restrictionsDetail",
              "type": "string"
            },
            {
              "internalType": "uint256",
              "name": "maxTestersQuantity",
              "type": "uint256"
            },
            {
              "internalType": "uint256",
              "name": "investment",
              "type": "uint256"
            },
            {
              "internalType": "uint256",
              "name": "status",
              "type": "uint256"
            }
          ],
          "internalType": "struct Project",
          "name": "",
          "type": "tuple"
        }
      ],
      "stateMutability": "view",
      "type": "function"
    },
    {
      "inputs": [
        {
          "internalType": "uint256",
          "name": "_projectIdToGetOwnerName",
          "type": "uint256"
        }
      ],
      "name": "getProjectOwnerName",
      "outputs": [
        {
          "internalType": "string",
          "name": "",
          "type": "string"
        }
      ],
      "stateMutability": "view",
      "type": "function"
    },
    {
      "inputs": [
        {
          "internalType": "uint256",
          "name": "_projectIdToGetResults",
          "type": "uint256"
        }
      ],
      "name": "getProjectResults",
      "outputs": [
        {
          "internalType": "uint256[]",
          "name": "",
          "type": "uint256[]"
        }
      ],
      "stateMutability": "view",
      "type": "function"
    },
    {
      "inputs": [
        {
          "internalType": "uint256",
          "name": "_testEnrollmentIdToGet",
          "type": "uint256"
        }
      ],
      "name": "getTestEnrollment",
      "outputs": [
        {
          "components": [
            {
              "internalType": "uint256",
              "name": "id",
              "type": "uint256"
            },
            {
              "internalType": "uint256",
              "name": "status",
              "type": "uint256"
            },
            {
              "internalType": "string",
              "name": "results",
              "type": "string"
            }
          ],
          "internalType": "struct TestEnrollment",
          "name": "",
          "type": "tuple"
        }
      ],
      "stateMutability": "view",
      "type": "function"
    },
    {
      "inputs": [
        {
          "internalType": "uint256",
          "name": "_testEnrollmentIdToGetProject",
          "type": "uint256"
        }
      ],
      "name": "getTestEnrollmentProjectInfo",
      "outputs": [
        {
          "components": [
            {
              "internalType": "uint256",
              "name": "id",
              "type": "uint256"
            },
            {
              "internalType": "uint256",
              "name": "createdAt",
              "type": "uint256"
            },
            {
              "internalType": "string",
              "name": "projectDetails",
              "type": "string"
            },
            {
              "internalType": "uint256",
              "name": "deadline",
              "type": "uint256"
            },
            {
              "internalType": "string",
              "name": "testType",
              "type": "string"
            },
            {
              "internalType": "string",
              "name": "questions",
              "type": "string"
            },
            {
              "internalType": "string",
              "name": "restrictionsDetail",
              "type": "string"
            },
            {
              "internalType": "uint256",
              "name": "maxTestersQuantity",
              "type": "uint256"
            },
            {
              "internalType": "uint256",
              "name": "investment",
              "type": "uint256"
            },
            {
              "internalType": "uint256",
              "name": "status",
              "type": "uint256"
            }
          ],
          "internalType": "struct Project",
          "name": "",
          "type": "tuple"
        }
      ],
      "stateMutability": "view",
      "type": "function"
    },
    {
      "inputs": [
        {
          "internalType": "address",
          "name": "_address",
          "type": "address"
        }
      ],
      "name": "getUserCompletedTestsCount",
      "outputs": [
        {
          "internalType": "uint256",
          "name": "",
          "type": "uint256"
        }
      ],
      "stateMutability": "view",
      "type": "function"
    },
    {
      "inputs": [],
      "name": "getUserCreatedProjects",
      "outputs": [
        {
          "internalType": "uint256[]",
          "name": "",
          "type": "uint256[]"
        }
      ],
      "stateMutability": "view",
      "type": "function"
    },
    {
      "inputs": [
        {
          "internalType": "address",
          "name": "_address",
          "type": "address"
        },
        {
          "internalType": "bool",
          "name": "_returnOnlyCompleted",
          "type": "bool"
        }
      ],
      "name": "getUserEnrollments",
      "outputs": [
        {
          "internalType": "uint256[]",
          "name": "",
          "type": "uint256[]"
        }
      ],
      "stateMutability": "view",
      "type": "function"
    },
    {
      "inputs": [
        {
          "internalType": "address",
          "name": "_userAddress",
          "type": "address"
        }
      ],
      "name": "getUserInfo",
      "outputs": [
        {
          "components": [
            {
              "internalType": "address",
              "name": "userAddress",
              "type": "address"
            },
            {
              "internalType": "string",
              "name": "nickname",
              "type": "string"
            },
            {
              "internalType": "string",
              "name": "country",
              "type": "string"
            },
            {
              "internalType": "uint256",
              "name": "birthdateYear",
              "type": "uint256"
            },
            {
              "internalType": "string",
              "name": "description",
              "type": "string"
            },
            {
              "internalType": "string[]",
              "name": "interests",
              "type": "string[]"
            },
            {
              "internalType": "string",
              "name": "profileImageURL",
              "type": "string"
            },
            {
              "internalType": "bool",
              "name": "isSet",
              "type": "bool"
            }
          ],
          "internalType": "struct User",
          "name": "",
          "type": "tuple"
        }
      ],
      "stateMutability": "view",
      "type": "function"
    },
    {
      "inputs": [],
      "name": "midasFee",
      "outputs": [
        {
          "internalType": "uint256",
          "name": "",
          "type": "uint256"
        }
      ],
      "stateMutability": "view",
      "type": "function"
    },
    {
      "inputs": [],
      "name": "minimumInvestment",
      "outputs": [
        {
          "internalType": "uint256",
          "name": "",
          "type": "uint256"
        }
      ],
      "stateMutability": "view",
      "type": "function"
    },
    {
      "inputs": [],
      "name": "owner",
      "outputs": [
        {
          "internalType": "address",
          "name": "",
          "type": "address"
        }
      ],
      "stateMutability": "view",
      "type": "function"
    },
    {
      "inputs": [
        {
          "internalType": "address",
          "name": "",
          "type": "address"
        }
      ],
      "name": "ownerProjectCount",
      "outputs": [
        {
          "internalType": "uint256",
          "name": "",
          "type": "uint256"
        }
      ],
      "stateMutability": "view",
      "type": "function"
    },
    {
      "inputs": [
        {
          "internalType": "address",
          "name": "",
          "type": "address"
        }
      ],
      "name": "ownerTestEnrollmentCount",
      "outputs": [
        {
          "internalType": "uint256",
          "name": "",
          "type": "uint256"
        }
      ],
      "stateMutability": "view",
      "type": "function"
    },
    {
      "inputs": [
        {
          "internalType": "uint256",
          "name": "_projectIdToKickOff",
          "type": "uint256"
        }
      ],
      "name": "projectKickOff",
      "outputs": [],
      "stateMutability": "payable",
      "type": "function"
    },
    {
      "inputs": [
        {
          "internalType": "uint256",
          "name": "",
          "type": "uint256"
        }
      ],
      "name": "projectRemainingInvestment",
      "outputs": [
        {
          "internalType": "uint256",
          "name": "",
          "type": "uint256"
        }
      ],
      "stateMutability": "view",
      "type": "function"
    },
    {
      "inputs": [
        {
          "internalType": "uint256",
          "name": "",
          "type": "uint256"
        }
      ],
      "name": "projectTestEnrollmentCount",
      "outputs": [
        {
          "internalType": "uint256",
          "name": "",
          "type": "uint256"
        }
      ],
      "stateMutability": "view",
      "type": "function"
    },
    {
      "inputs": [
        {
          "internalType": "uint256",
          "name": "",
          "type": "uint256"
        }
      ],
      "name": "projectToOwner",
      "outputs": [
        {
          "internalType": "address",
          "name": "",
          "type": "address"
        }
      ],
      "stateMutability": "view",
      "type": "function"
    },
    {
      "inputs": [],
      "name": "renounceOwnership",
      "outputs": [],
      "stateMutability": "nonpayable",
      "type": "function"
    },
    {
      "inputs": [
        {
          "internalType": "uint256",
          "name": "_newFee",
          "type": "uint256"
        }
      ],
      "name": "setMidasFee",
      "outputs": [],
      "stateMutability": "nonpayable",
      "type": "function"
    },
    {
      "inputs": [
        {
          "internalType": "string",
          "name": "_nickname",
          "type": "string"
        },
        {
          "internalType": "string",
          "name": "_country",
          "type": "string"
        },
        {
          "internalType": "uint256",
          "name": "_birthdateYear",
          "type": "uint256"
        },
        {
          "internalType": "string",
          "name": "_description",
          "type": "string"
        },
        {
          "internalType": "string[]",
          "name": "_interests",
          "type": "string[]"
        },
        {
          "internalType": "string",
          "name": "_profileImageURL",
          "type": "string"
        }
      ],
      "name": "setUserInfo",
      "outputs": [
        {
          "internalType": "string",
          "name": "",
          "type": "string"
        }
      ],
      "stateMutability": "nonpayable",
      "type": "function"
    },
    {
      "inputs": [
        {
          "internalType": "uint256",
          "name": "",
          "type": "uint256"
        }
      ],
      "name": "testEnrollmentToOwner",
      "outputs": [
        {
          "internalType": "address",
          "name": "",
          "type": "address"
        }
      ],
      "stateMutability": "view",
      "type": "function"
    },
    {
      "inputs": [
        {
          "internalType": "uint256",
          "name": "",
          "type": "uint256"
        }
      ],
      "name": "testEnrollmentToProject",
      "outputs": [
        {
          "internalType": "uint256",
          "name": "",
          "type": "uint256"
        }
      ],
      "stateMutability": "view",
      "type": "function"
    },
    {
      "inputs": [
        {
          "internalType": "address",
          "name": "newOwner",
          "type": "address"
        }
      ],
      "name": "transferOwnership",
      "outputs": [],
      "stateMutability": "nonpayable",
      "type": "function"
    },
    {
      "inputs": [
        {
          "internalType": "uint256",
          "name": "_testEnrollmentIdToUpdate",
          "type": "uint256"
        },
        {
          "internalType": "uint256",
          "name": "_status",
          "type": "uint256"
        },
        {
          "internalType": "string",
          "name": "_results",
          "type": "string"
        }
      ],
      "name": "updateEnrollmentResult",
      "outputs": [],
      "stateMutability": "nonpayable",
      "type": "function"
    },
    {
      "inputs": [
        {
          "internalType": "uint256",
          "name": "_projectIdToUpdate",
          "type": "uint256"
        },
        {
          "internalType": "string",
          "name": "_projectDetails",
          "type": "string"
        },
        {
          "internalType": "uint256",
          "name": "_deadline",
          "type": "uint256"
        },
        {
          "internalType": "string",
          "name": "_testType",
          "type": "string"
        },
        {
          "internalType": "string",
          "name": "_questions",
          "type": "string"
        },
        {
          "internalType": "string",
          "name": "_restrictionsDetail",
          "type": "string"
        },
        {
          "internalType": "uint256",
          "name": "_maxTestersQuantity",
          "type": "uint256"
        },
        {
          "internalType": "uint256",
          "name": "_investment",
          "type": "uint256"
        }
      ],
      "name": "updateProjectInfo",
      "outputs": [],
      "stateMutability": "nonpayable",
      "type": "function"
    },
    {
      "inputs": [
        {
          "internalType": "address",
          "name": "",
          "type": "address"
        }
      ],
      "name": "userCompletedTestsCount",
      "outputs": [
        {
          "internalType": "uint256",
          "name": "",
          "type": "uint256"
        }
      ],
      "stateMutability": "view",
      "type": "function"
    }
  ],
  "bytecode": "0x6080604052670de0b6b3a7640000600355670de0b6b3a76400006004553480156200002957600080fd5b506200004a6200003e6200005060201b60201c565b6200005860201b60201c565b6200011c565b600033905090565b60008060009054906101000a900473ffffffffffffffffffffffffffffffffffffffff169050816000806101000a81548173ffffffffffffffffffffffffffffffffffffffff021916908373ffffffffffffffffffffffffffffffffffffffff1602179055508173ffffffffffffffffffffffffffffffffffffffff168173ffffffffffffffffffffffffffffffffffffffff167f8be0079c531659141344cd1fd0a4f28419497f9722a3daafe3b4186f6b6457e060405160405180910390a35050565b6151a6806200012c6000396000f3fe6080604052600436106101ed5760003560e01c8063715018a61161010d57806395d50946116100a0578063bb7ff0121161006f578063bb7ff0121461078a578063c5281070146107c7578063c98bfe34146107f0578063f2fde38b1461082d578063fabf596814610856576101ed565b806395d50946146106965780639e73c960146106d3578063a3de1c5f14610710578063b2c4cf5a1461074d576101ed565b80638884228e116100dc5780638884228e146105dc5780638da5cb5b1461060557806393dc12e61461063057806393ef980f14610659576101ed565b8063715018a61461055357806373381c6a1461056a5780637fdc79a01461059557806380d03829146105b1576101ed565b8063445da8a0116101855780634f7cf790116101545780634f7cf7901461045c57806351283dda14610499578063535a9cc1146104d65780636386c1c714610516576101ed565b8063445da8a0146103a257806344f5d940146103cd57806348f8655f146103f65780634def19de1461041f576101ed565b806308b6740d116101c157806308b6740d146102c057806316074c3f146102fd5780631b26a7a51461033a5780632b925b2514610377576101ed565b8062f16b51146101f2578063012783831461022f57806304ff0c48146102585780630839e93714610295575b600080fd5b3480156101fe57600080fd5b5061021960048036038101906102149190613cfd565b610893565b6040516102269190614cfd565b60405180910390f35b34801561023b57600080fd5b5061025660048036038101906102519190613d26565b6108ab565b005b34801561026457600080fd5b5061027f600480360381019061027a9190613cfd565b610b61565b60405161028c9190614909565b60405180910390f35b3480156102a157600080fd5b506102aa610c68565b6040516102b791906148e7565b60405180910390f35b3480156102cc57600080fd5b506102e760048036038101906102e29190613cfd565b610e09565b6040516102f49190614cfd565b60405180910390f35b34801561030957600080fd5b50610324600480360381019061031f9190613cfd565b610e21565b60405161033191906148e7565b60405180910390f35b34801561034657600080fd5b50610361600480360381019061035c9190613b97565b611038565b60405161036e9190614cfd565b60405180910390f35b34801561038357600080fd5b5061038c611050565b6040516103999190614cfd565b60405180910390f35b3480156103ae57600080fd5b506103b7611056565b6040516103c49190614cfd565b60405180910390f35b3480156103d957600080fd5b506103f460048036038101906103ef9190613d26565b611060565b005b34801561040257600080fd5b5061041d60048036038101906104189190613cfd565b6112d4565b005b34801561042b57600080fd5b5061044660048036038101906104419190613b97565b61135a565b6040516104539190614cfd565b60405180910390f35b34801561046857600080fd5b50610483600480360381019061047e9190613cfd565b6113a3565b60405161049091906148cc565b60405180910390f35b3480156104a557600080fd5b506104c060048036038101906104bb9190613cfd565b6113d6565b6040516104cd9190614cb9565b60405180910390f35b3480156104e257600080fd5b506104fd60048036038101906104f89190613cfd565b611611565b60405161050d949392919061492b565b60405180910390f35b34801561052257600080fd5b5061053d60048036038101906105389190613b97565b6118f9565b60405161054a9190614cdb565b60405180910390f35b34801561055f57600080fd5b50610568611cef565b005b34801561057657600080fd5b5061057f611d77565b60405161058c9190614cfd565b60405180910390f35b6105af60048036038101906105aa9190613cfd565b611d7d565b005b3480156105bd57600080fd5b506105c6612027565b6040516105d391906148e7565b60405180910390f35b3480156105e857600080fd5b5061060360048036038101906105fe9190613cfd565b61212a565b005b34801561061157600080fd5b5061061a6124ab565b60405161062791906148cc565b60405180910390f35b34801561063c57600080fd5b5061065760048036038101906106529190613cfd565b6124d4565b005b34801561066557600080fd5b50610680600480360381019061067b9190613bfc565b6128c2565b60405161068d9190614909565b60405180910390f35b3480156106a257600080fd5b506106bd60048036038101906106b89190613b97565b612ba7565b6040516106ca9190614cfd565b60405180910390f35b3480156106df57600080fd5b506106fa60048036038101906106f59190613cfd565b612bbf565b6040516107079190614cfd565b60405180910390f35b34801561071c57600080fd5b5061073760048036038101906107329190613cfd565b612bd7565b6040516107449190614c97565b60405180910390f35b34801561075957600080fd5b50610774600480360381019061076f9190613b97565b612e9c565b6040516107819190614cfd565b60405180910390f35b34801561079657600080fd5b506107b160048036038101906107ac9190613cfd565b612eb4565b6040516107be91906148cc565b60405180910390f35b3480156107d357600080fd5b506107ee60048036038101906107e99190613e38565b612ee7565b005b3480156107fc57600080fd5b5061081760048036038101906108129190613bc0565b613173565b60405161082491906148e7565b60405180910390f35b34801561083957600080fd5b50610854600480360381019061084f9190613b97565b613397565b005b34801561086257600080fd5b5061087d60048036038101906108789190613cfd565b61348f565b60405161088a9190614c97565b60405180910390f35b600e6020528060005260406000206000915090505481565b6108b56001613741565b88106108f6576040517f08c379a00000000000000000000000000000000000000000000000000000000081526004016108ed90614b97565b60405180910390fd5b3373ffffffffffffffffffffffffffffffffffffffff16600960008a815260200190815260200160002060009054906101000a900473ffffffffffffffffffffffffffffffffffffffff1673ffffffffffffffffffffffffffffffffffffffff1614610997576040517f08c379a000000000000000000000000000000000000000000000000000000000815260040161098e90614b17565b60405180910390fd5b6000600860008a815260200190815260200160002060090154146109f0576040517f08c379a00000000000000000000000000000000000000000000000000000000081526004016109e790614a57565b60405180910390fd5b854210610a32576040517f08c379a0000000000000000000000000000000000000000000000000000000008152600401610a2990614b37565b60405180910390fd5b604051806101400160405280898152602001600860008b81526020019081526020016000206001015481526020018881526020018781526020018681526020018581526020018481526020018381526020018281526020016000815250600860008a815260200190815260200160002060008201518160000155602082015181600101556040820151816002019080519060200190610ad2929190613831565b50606082015181600301556080820151816004019080519060200190610af9929190613831565b5060a0820151816005019080519060200190610b16929190613831565b5060c0820151816006019080519060200190610b33929190613831565b5060e08201518160070155610100820151816008015561012082015181600901559050505050505050505050565b6060600660006009600085815260200190815260200160002060009054906101000a900473ffffffffffffffffffffffffffffffffffffffff1673ffffffffffffffffffffffffffffffffffffffff1673ffffffffffffffffffffffffffffffffffffffff1681526020019081526020016000206001018054610be390614fe3565b80601f0160208091040260200160405190810160405280929190818152602001828054610c0f90614fe3565b8015610c5c5780601f10610c3157610100808354040283529160200191610c5c565b820191906000526020600020905b815481529060010190602001808311610c3f57829003601f168201915b50505050509050919050565b60606000600a60003373ffffffffffffffffffffffffffffffffffffffff1673ffffffffffffffffffffffffffffffffffffffff1681526020019081526020016000205467ffffffffffffffff811115610ceb577f4e487b7100000000000000000000000000000000000000000000000000000000600052604160045260246000fd5b604051908082528060200260200182016040528015610d195781602001602082028036833780820191505090505b5090506000805b610d2a6001613741565b811015610e00573373ffffffffffffffffffffffffffffffffffffffff166009600083815260200190815260200160002060009054906101000a900473ffffffffffffffffffffffffffffffffffffffff1673ffffffffffffffffffffffffffffffffffffffff161415610ded5780838381518110610dd2577f4e487b7100000000000000000000000000000000000000000000000000000000600052603260045260246000fd5b6020026020010181815250508180610de990615015565b9250505b8080610df890615015565b915050610d20565b50819250505090565b600b6020528060005260406000206000915090505481565b6060610e2d6001613741565b8210610e6e576040517f08c379a0000000000000000000000000000000000000000000000000000000008152600401610e6590614c37565b60405180910390fd5b3373ffffffffffffffffffffffffffffffffffffffff166009600084815260200190815260200160002060009054906101000a900473ffffffffffffffffffffffffffffffffffffffff1673ffffffffffffffffffffffffffffffffffffffff1614610f0f576040517f08c379a0000000000000000000000000000000000000000000000000000000008152600401610f0690614bf7565b60405180910390fd5b6000601060008481526020019081526020016000205467ffffffffffffffff811115610f64577f4e487b7100000000000000000000000000000000000000000000000000000000600052604160045260246000fd5b604051908082528060200260200182016040528015610f925781602001602082028036833780820191505090505b5090506000805b610fa36002613741565b81101561102d5784600e600083815260200190815260200160002054141561101a5780838381518110610fff577f4e487b7100000000000000000000000000000000000000000000000000000000600052603260045260246000fd5b602002602001018181525050818061101690615015565b9250505b808061102590615015565b915050610f99565b508192505050919050565b600a6020528060005260406000206000915090505481565b60045481565b6000600354905090565b600660003373ffffffffffffffffffffffffffffffffffffffff1673ffffffffffffffffffffffffffffffffffffffff16815260200190815260200160002060070160009054906101000a900460ff166110ef576040517f08c379a00000000000000000000000000000000000000000000000000000000081526004016110e690614a97565b60405180910390fd5b6040518061014001604052806111056001613741565b815260200189815260200188815260200187815260200186815260200185815260200184815260200183815260200182815260200160008152506008600061114d6001613741565b81526020019081526020016000206000820151816000015560208201518160010155604082015181600201908051906020019061118b929190613831565b506060820151816003015560808201518160040190805190602001906111b2929190613831565b5060a08201518160050190805190602001906111cf929190613831565b5060c08201518160060190805190602001906111ec929190613831565b5060e0820151816007015561010082015181600801556101208201518160090155905050336009600061121f6001613741565b815260200190815260200160002060006101000a81548173ffffffffffffffffffffffffffffffffffffffff021916908373ffffffffffffffffffffffffffffffffffffffff160217905550600a60003373ffffffffffffffffffffffffffffffffffffffff1673ffffffffffffffffffffffffffffffffffffffff16815260200190815260200160002060008154809291906112bb90615015565b91905055506112ca600161374f565b5050505050505050565b6112dc613765565b73ffffffffffffffffffffffffffffffffffffffff166112fa6124ab565b73ffffffffffffffffffffffffffffffffffffffff1614611350576040517f08c379a000000000000000000000000000000000000000000000000000000000815260040161134790614b77565b60405180910390fd5b8060038190555050565b6000600760008373ffffffffffffffffffffffffffffffffffffffff1673ffffffffffffffffffffffffffffffffffffffff168152602001908152602001600020549050919050565b60096020528060005260406000206000915054906101000a900473ffffffffffffffffffffffffffffffffffffffff1681565b6113de6138b7565b6113e86002613741565b8210611429576040517f08c379a000000000000000000000000000000000000000000000000000000000815260040161142090614997565b60405180910390fd5b3373ffffffffffffffffffffffffffffffffffffffff16600d600084815260200190815260200160002060009054906101000a900473ffffffffffffffffffffffffffffffffffffffff1673ffffffffffffffffffffffffffffffffffffffff16148061150757503373ffffffffffffffffffffffffffffffffffffffff1660096000600e600086815260200190815260200160002054815260200190815260200160002060009054906101000a900473ffffffffffffffffffffffffffffffffffffffff1673ffffffffffffffffffffffffffffffffffffffff16145b611546576040517f08c379a000000000000000000000000000000000000000000000000000000000815260040161153d90614ad7565b60405180910390fd5b600c6000838152602001908152602001600020604051806060016040529081600082015481526020016001820154815260200160028201805461158890614fe3565b80601f01602080910402602001604051908101604052809291908181526020018280546115b490614fe3565b80156116015780601f106115d657610100808354040283529160200191611601565b820191906000526020600020905b8154815290600101906020018083116115e457829003601f168201915b5050505050815250509050919050565b6060600080600060096000600e600088815260200190815260200160002054815260200190815260200160002060009054906101000a900473ffffffffffffffffffffffffffffffffffffffff1673ffffffffffffffffffffffffffffffffffffffff163373ffffffffffffffffffffffffffffffffffffffff16146116cc576040517f08c379a00000000000000000000000000000000000000000000000000000000081526004016116c390614bb7565b60405180910390fd5b60066000600d600088815260200190815260200160002060009054906101000a900473ffffffffffffffffffffffffffffffffffffffff1673ffffffffffffffffffffffffffffffffffffffff1673ffffffffffffffffffffffffffffffffffffffff16815260200190815260200160002060010160066000600d600089815260200190815260200160002060009054906101000a900473ffffffffffffffffffffffffffffffffffffffff1673ffffffffffffffffffffffffffffffffffffffff1673ffffffffffffffffffffffffffffffffffffffff1681526020019081526020016000206003015460076000600d60008a815260200190815260200160002060009054906101000a900473ffffffffffffffffffffffffffffffffffffffff1673ffffffffffffffffffffffffffffffffffffffff1673ffffffffffffffffffffffffffffffffffffffff16815260200190815260200160002054600d600089815260200190815260200160002060009054906101000a900473ffffffffffffffffffffffffffffffffffffffff1683805461186a90614fe3565b80601f016020809104026020016040519081016040528092919081815260200182805461189690614fe3565b80156118e35780601f106118b8576101008083540402835291602001916118e3565b820191906000526020600020905b8154815290600101906020018083116118c657829003601f168201915b5050505050935093509350935093509193509193565b6119016138d8565b600660008373ffffffffffffffffffffffffffffffffffffffff1673ffffffffffffffffffffffffffffffffffffffff168152602001908152602001600020604051806101000160405290816000820160009054906101000a900473ffffffffffffffffffffffffffffffffffffffff1673ffffffffffffffffffffffffffffffffffffffff1673ffffffffffffffffffffffffffffffffffffffff1681526020016001820180546119b290614fe3565b80601f01602080910402602001604051908101604052809291908181526020018280546119de90614fe3565b8015611a2b5780601f10611a0057610100808354040283529160200191611a2b565b820191906000526020600020905b815481529060010190602001808311611a0e57829003601f168201915b50505050508152602001600282018054611a4490614fe3565b80601f0160208091040260200160405190810160405280929190818152602001828054611a7090614fe3565b8015611abd5780601f10611a9257610100808354040283529160200191611abd565b820191906000526020600020905b815481529060010190602001808311611aa057829003601f168201915b5050505050815260200160038201548152602001600482018054611ae090614fe3565b80601f0160208091040260200160405190810160405280929190818152602001828054611b0c90614fe3565b8015611b595780601f10611b2e57610100808354040283529160200191611b59565b820191906000526020600020905b815481529060010190602001808311611b3c57829003601f168201915b5050505050815260200160058201805480602002602001604051908101604052809291908181526020016000905b82821015611c33578382906000526020600020018054611ba690614fe3565b80601f0160208091040260200160405190810160405280929190818152602001828054611bd290614fe3565b8015611c1f5780601f10611bf457610100808354040283529160200191611c1f565b820191906000526020600020905b815481529060010190602001808311611c0257829003601f168201915b505050505081526020019060010190611b87565b505050508152602001600682018054611c4b90614fe3565b80601f0160208091040260200160405190810160405280929190818152602001828054611c7790614fe3565b8015611cc45780601f10611c9957610100808354040283529160200191611cc4565b820191906000526020600020905b815481529060010190602001808311611ca757829003601f168201915b505050505081526020016007820160009054906101000a900460ff1615151515815250509050919050565b611cf7613765565b73ffffffffffffffffffffffffffffffffffffffff16611d156124ab565b73ffffffffffffffffffffffffffffffffffffffff1614611d6b576040517f08c379a0000000000000000000000000000000000000000000000000000000008152600401611d6290614b77565b60405180910390fd5b611d75600061376d565b565b60035481565b600454600860008381526020019081526020016000206008015411611dd7576040517f08c379a0000000000000000000000000000000000000000000000000000000008152600401611dce90614af7565b60405180910390fd5b6003546008600083815260200190815260200160002060080154611dfb9190614e44565b341015611e3d576040517f08c379a0000000000000000000000000000000000000000000000000000000008152600401611e3490614c17565b60405180910390fd5b611e476001613741565b8110611e88576040517f08c379a0000000000000000000000000000000000000000000000000000000008152600401611e7f90614b97565b60405180910390fd5b3373ffffffffffffffffffffffffffffffffffffffff166009600083815260200190815260200160002060009054906101000a900473ffffffffffffffffffffffffffffffffffffffff1673ffffffffffffffffffffffffffffffffffffffff1614611f29576040517f08c379a0000000000000000000000000000000000000000000000000000000008152600401611f2090614b17565b60405180910390fd5b6000600860008381526020019081526020016000206009015414611f82576040517f08c379a0000000000000000000000000000000000000000000000000000000008152600401611f7990614a57565b60405180910390fd5b60086000828152602001908152602001600020600301544210611fda576040517f08c379a0000000000000000000000000000000000000000000000000000000008152600401611fd1906149f7565b60405180910390fd5b600160086000838152602001908152602001600020600901819055506008600082815260200190815260200160002060080154600b60008381526020019081526020016000208190555050565b606060006120356001613741565b67ffffffffffffffff811115612074577f4e487b7100000000000000000000000000000000000000000000000000000000600052604160045260246000fd5b6040519080825280602002602001820160405280156120a25781602001602082028036833780820191505090505b5090506000805b6120b36001613741565b81101561212157808383815181106120f4577f4e487b7100000000000000000000000000000000000000000000000000000000600052603260045260246000fd5b602002602001018181525050818061210b90615015565b925050808061211990615015565b9150506120a9565b50819250505090565b600660003373ffffffffffffffffffffffffffffffffffffffff1673ffffffffffffffffffffffffffffffffffffffff16815260200190815260200160002060070160009054906101000a900460ff166121b9576040517f08c379a00000000000000000000000000000000000000000000000000000000081526004016121b0906149d7565b60405180910390fd5b601060008281526020019081526020016000205460086000838152602001908152602001600020600701541015612225576040517f08c379a000000000000000000000000000000000000000000000000000000000815260040161221c90614c57565b60405180910390fd5b3373ffffffffffffffffffffffffffffffffffffffff166009600083815260200190815260200160002060009054906101000a900473ffffffffffffffffffffffffffffffffffffffff1673ffffffffffffffffffffffffffffffffffffffff1614156122c7576040517f08c379a00000000000000000000000000000000000000000000000000000000081526004016122be906149b7565b60405180910390fd5b6001600860008381526020019081526020016000206009015414612320576040517f08c379a000000000000000000000000000000000000000000000000000000000815260040161231790614b57565b60405180910390fd5b60405180606001604052806123356002613741565b81526020016000815260200160405180602001604052806000815250815250600c60006123626002613741565b8152602001908152602001600020600082015181600001556020820151816001015560408201518160020190805190602001906123a0929190613831565b5090505033600d60006123b36002613741565b815260200190815260200160002060006101000a81548173ffffffffffffffffffffffffffffffffffffffff021916908373ffffffffffffffffffffffffffffffffffffffff16021790555080600e600061240e6002613741565b815260200190815260200160002081905550600f60003373ffffffffffffffffffffffffffffffffffffffff1673ffffffffffffffffffffffffffffffffffffffff168152602001908152602001600020600081548092919061247090615015565b919050555060106000828152602001908152602001600020600081548092919061249990615015565b91905055506124a8600261374f565b50565b60008060009054906101000a900473ffffffffffffffffffffffffffffffffffffffff16905090565b3373ffffffffffffffffffffffffffffffffffffffff166009600083815260200190815260200160002060009054906101000a900473ffffffffffffffffffffffffffffffffffffffff1673ffffffffffffffffffffffffffffffffffffffff1614612575576040517f08c379a000000000000000000000000000000000000000000000000000000000815260040161256c90614bd7565b60405180910390fd5b61257f6001613741565b81106125c0576040517f08c379a00000000000000000000000000000000000000000000000000000000081526004016125b790614ab7565b60405180910390fd5b60086000828152602001908152602001600020600301544210612618576040517f08c379a000000000000000000000000000000000000000000000000000000000815260040161260f90614a17565b60405180910390fd5b6001600860008381526020019081526020016000206009015414612671576040517f08c379a000000000000000000000000000000000000000000000000000000000815260040161266890614a77565b60405180910390fd5b60005b61267e6002613741565b81101561280b5781600e60008381526020019081526020016000205414156127f8576000600c60008381526020019081526020016000206001015414156127f757600060086000600e60008581526020019081526020016000205481526020019081526020016000206007015460086000600e60008681526020019081526020016000205481526020019081526020016000206008015461271f9190614e9a565b9050600d600083815260200190815260200160002060009054906101000a900473ffffffffffffffffffffffffffffffffffffffff1673ffffffffffffffffffffffffffffffffffffffff166108fc606460058461277d9190614ecb565b6127879190614e9a565b9081150290604051600060405180830381858888f193505050501580156127b2573d6000803e3d6000fd5b5060646005826127c29190614ecb565b6127cc9190614e9a565b600b600085815260200190815260200160002060008282546127ee9190614f25565b92505081905550505b5b808061280390615015565b915050612674565b503373ffffffffffffffffffffffffffffffffffffffff166108fc600b6000848152602001908152602001600020549081150290604051600060405180830381858888f19350505050158015612865573d6000803e3d6000fd5b50600b600082815260200190815260200160002054600b6000838152602001908152602001600020600082825461289c9190614f25565b925050819055506002600860008381526020019081526020016000206009018190555050565b60606000600660003373ffffffffffffffffffffffffffffffffffffffff1673ffffffffffffffffffffffffffffffffffffffff16815260200190815260200160002060070160009054906101000a900460ff16156129245760019050612988565b6005339080600181540180825580915050600190039060005260206000200160009091909190916101000a81548173ffffffffffffffffffffffffffffffffffffffff021916908373ffffffffffffffffffffffffffffffffffffffff1602179055505b6040518061010001604052803373ffffffffffffffffffffffffffffffffffffffff16815260200189815260200188815260200187815260200186815260200185815260200184815260200160011515815250600660003373ffffffffffffffffffffffffffffffffffffffff1673ffffffffffffffffffffffffffffffffffffffff16815260200190815260200160002060008201518160000160006101000a81548173ffffffffffffffffffffffffffffffffffffffff021916908373ffffffffffffffffffffffffffffffffffffffff1602179055506020820151816001019080519060200190612a7d929190613831565b506040820151816002019080519060200190612a9a929190613831565b50606082015181600301556080820151816004019080519060200190612ac1929190613831565b5060a0820151816005019080519060200190612ade929190613935565b5060c0820151816006019080519060200190612afb929190613831565b5060e08201518160070160006101000a81548160ff0219169083151502179055509050508015612b63576040518060400160405280601581526020017f5375636365737366756c6c792075706461746564210000000000000000000000815250915050612b9d565b6040518060400160405280601581526020017f5375636365737366756c6c7920637265617465642100000000000000000000008152509150505b9695505050505050565b600f6020528060005260406000206000915090505481565b60106020528060005260406000206000915090505481565b612bdf613995565b60086000600e6000858152602001908152602001600020548152602001908152602001600020604051806101400160405290816000820154815260200160018201548152602001600282018054612c3590614fe3565b80601f0160208091040260200160405190810160405280929190818152602001828054612c6190614fe3565b8015612cae5780601f10612c8357610100808354040283529160200191612cae565b820191906000526020600020905b815481529060010190602001808311612c9157829003601f168201915b5050505050815260200160038201548152602001600482018054612cd190614fe3565b80601f0160208091040260200160405190810160405280929190818152602001828054612cfd90614fe3565b8015612d4a5780601f10612d1f57610100808354040283529160200191612d4a565b820191906000526020600020905b815481529060010190602001808311612d2d57829003601f168201915b50505050508152602001600582018054612d6390614fe3565b80601f0160208091040260200160405190810160405280929190818152602001828054612d8f90614fe3565b8015612ddc5780601f10612db157610100808354040283529160200191612ddc565b820191906000526020600020905b815481529060010190602001808311612dbf57829003601f168201915b50505050508152602001600682018054612df590614fe3565b80601f0160208091040260200160405190810160405280929190818152602001828054612e2190614fe3565b8015612e6e5780601f10612e4357610100808354040283529160200191612e6e565b820191906000526020600020905b815481529060010190602001808311612e5157829003601f168201915b5050505050815260200160078201548152602001600882015481526020016009820154815250509050919050565b60076020528060005260406000206000915090505481565b600d6020528060005260406000206000915054906101000a900473ffffffffffffffffffffffffffffffffffffffff1681565b3373ffffffffffffffffffffffffffffffffffffffff16600d600085815260200190815260200160002060009054906101000a900473ffffffffffffffffffffffffffffffffffffffff1673ffffffffffffffffffffffffffffffffffffffff1614612f88576040517f08c379a0000000000000000000000000000000000000000000000000000000008152600401612f7f90614977565b60405180910390fd5b6001600c6000858152602001908152602001600020600101541415612fe2576040517f08c379a0000000000000000000000000000000000000000000000000000000008152600401612fd990614c77565b60405180910390fd5b80600c6000858152602001908152602001600020600201908051906020019061300c929190613831565b50600182141561316e57600060086000600e60008781526020019081526020016000205481526020019081526020016000206007015460086000600e6000888152602001908152602001600020548152602001908152602001600020600801546130769190614e9a565b90503373ffffffffffffffffffffffffffffffffffffffff166108fc829081150290604051600060405180830381858888f193505050501580156130be573d6000803e3d6000fd5b5082600c600086815260200190815260200160002060010181905550600760003373ffffffffffffffffffffffffffffffffffffffff1673ffffffffffffffffffffffffffffffffffffffff168152602001908152602001600020600081548092919061312a90615015565b919050555080600b6000600e600088815260200190815260200160002054815260200190815260200160002060008282546131659190614f25565b92505081905550505b505050565b60606000600f60008573ffffffffffffffffffffffffffffffffffffffff1673ffffffffffffffffffffffffffffffffffffffff1681526020019081526020016000205467ffffffffffffffff8111156131f6577f4e487b7100000000000000000000000000000000000000000000000000000000600052604160045260246000fd5b6040519080825280602002602001820160405280156132245781602001602082028036833780820191505090505b5090506000805b6132356002613741565b81101561338b578573ffffffffffffffffffffffffffffffffffffffff16600d600083815260200190815260200160002060009054906101000a900473ffffffffffffffffffffffffffffffffffffffff1673ffffffffffffffffffffffffffffffffffffffff161415613378578415613322576001600c600083815260200190815260200160002060010154141561331d5780838381518110613302577f4e487b7100000000000000000000000000000000000000000000000000000000600052603260045260246000fd5b602002602001018181525050818061331990615015565b9250505b613377565b8083838151811061335c577f4e487b7100000000000000000000000000000000000000000000000000000000600052603260045260246000fd5b602002602001018181525050818061337390615015565b9250505b5b808061338390615015565b91505061322b565b50819250505092915050565b61339f613765565b73ffffffffffffffffffffffffffffffffffffffff166133bd6124ab565b73ffffffffffffffffffffffffffffffffffffffff1614613413576040517f08c379a000000000000000000000000000000000000000000000000000000000815260040161340a90614b77565b60405180910390fd5b600073ffffffffffffffffffffffffffffffffffffffff168173ffffffffffffffffffffffffffffffffffffffff161415613483576040517f08c379a000000000000000000000000000000000000000000000000000000000815260040161347a90614a37565b60405180910390fd5b61348c8161376d565b50565b613497613995565b600860008381526020019081526020016000206040518061014001604052908160008201548152602001600182015481526020016002820180546134da90614fe3565b80601f016020809104026020016040519081016040528092919081815260200182805461350690614fe3565b80156135535780601f1061352857610100808354040283529160200191613553565b820191906000526020600020905b81548152906001019060200180831161353657829003601f168201915b505050505081526020016003820154815260200160048201805461357690614fe3565b80601f01602080910402602001604051908101604052809291908181526020018280546135a290614fe3565b80156135ef5780601f106135c4576101008083540402835291602001916135ef565b820191906000526020600020905b8154815290600101906020018083116135d257829003601f168201915b5050505050815260200160058201805461360890614fe3565b80601f016020809104026020016040519081016040528092919081815260200182805461363490614fe3565b80156136815780601f1061365657610100808354040283529160200191613681565b820191906000526020600020905b81548152906001019060200180831161366457829003601f168201915b5050505050815260200160068201805461369a90614fe3565b80601f01602080910402602001604051908101604052809291908181526020018280546136c690614fe3565b80156137135780601f106136e857610100808354040283529160200191613713565b820191906000526020600020905b8154815290600101906020018083116136f657829003601f168201915b5050505050815260200160078201548152602001600882015481526020016009820154815250509050919050565b600081600001549050919050565b6001816000016000828254019250508190555050565b600033905090565b60008060009054906101000a900473ffffffffffffffffffffffffffffffffffffffff169050816000806101000a81548173ffffffffffffffffffffffffffffffffffffffff021916908373ffffffffffffffffffffffffffffffffffffffff1602179055508173ffffffffffffffffffffffffffffffffffffffff168173ffffffffffffffffffffffffffffffffffffffff167f8be0079c531659141344cd1fd0a4f28419497f9722a3daafe3b4186f6b6457e060405160405180910390a35050565b82805461383d90614fe3565b90600052602060002090601f01602090048101928261385f57600085556138a6565b82601f1061387857805160ff19168380011785556138a6565b828001600101855582156138a6579182015b828111156138a557825182559160200191906001019061388a565b5b5090506138b391906139e8565b5090565b60405180606001604052806000815260200160008152602001606081525090565b604051806101000160405280600073ffffffffffffffffffffffffffffffffffffffff1681526020016060815260200160608152602001600081526020016060815260200160608152602001606081526020016000151581525090565b828054828255906000526020600020908101928215613984579160200282015b82811115613983578251829080519060200190613973929190613831565b5091602001919060010190613955565b5b5090506139919190613a05565b5090565b604051806101400160405280600081526020016000815260200160608152602001600081526020016060815260200160608152602001606081526020016000815260200160008152602001600081525090565b5b80821115613a015760008160009055506001016139e9565b5090565b5b80821115613a255760008181613a1c9190613a29565b50600101613a06565b5090565b508054613a3590614fe3565b6000825580601f10613a475750613a66565b601f016020900490600052602060002090810190613a6591906139e8565b5b50565b6000613a7c613a7784614d49565b614d18565b9050808382526020820190508260005b85811015613abc5781358501613aa28882613b58565b845260208401935060208301925050600181019050613a8c565b5050509392505050565b6000613ad9613ad484614d75565b614d18565b905082815260208101848484011115613af157600080fd5b613afc848285614fa1565b509392505050565b600081359050613b138161512b565b92915050565b600082601f830112613b2a57600080fd5b8135613b3a848260208601613a69565b91505092915050565b600081359050613b5281615142565b92915050565b600082601f830112613b6957600080fd5b8135613b79848260208601613ac6565b91505092915050565b600081359050613b9181615159565b92915050565b600060208284031215613ba957600080fd5b6000613bb784828501613b04565b91505092915050565b60008060408385031215613bd357600080fd5b6000613be185828601613b04565b9250506020613bf285828601613b43565b9150509250929050565b60008060008060008060c08789031215613c1557600080fd5b600087013567ffffffffffffffff811115613c2f57600080fd5b613c3b89828a01613b58565b965050602087013567ffffffffffffffff811115613c5857600080fd5b613c6489828a01613b58565b9550506040613c7589828a01613b82565b945050606087013567ffffffffffffffff811115613c9257600080fd5b613c9e89828a01613b58565b935050608087013567ffffffffffffffff811115613cbb57600080fd5b613cc789828a01613b19565b92505060a087013567ffffffffffffffff811115613ce457600080fd5b613cf089828a01613b58565b9150509295509295509295565b600060208284031215613d0f57600080fd5b6000613d1d84828501613b82565b91505092915050565b600080600080600080600080610100898b031215613d4357600080fd5b6000613d518b828c01613b82565b985050602089013567ffffffffffffffff811115613d6e57600080fd5b613d7a8b828c01613b58565b9750506040613d8b8b828c01613b82565b965050606089013567ffffffffffffffff811115613da857600080fd5b613db48b828c01613b58565b955050608089013567ffffffffffffffff811115613dd157600080fd5b613ddd8b828c01613b58565b94505060a089013567ffffffffffffffff811115613dfa57600080fd5b613e068b828c01613b58565b93505060c0613e178b828c01613b82565b92505060e0613e288b828c01613b82565b9150509295985092959890939650565b600080600060608486031215613e4d57600080fd5b6000613e5b86828701613b82565b9350506020613e6c86828701613b82565b925050604084013567ffffffffffffffff811115613e8957600080fd5b613e9586828701613b58565b9150509250925092565b6000613eab8383613fcb565b905092915050565b6000613ebf83836148ae565b60208301905092915050565b613ed481614f59565b82525050565b613ee381614f59565b82525050565b6000613ef482614dc5565b613efe8185614e00565b935083602082028501613f1085614da5565b8060005b85811015613f4c5784840389528151613f2d8582613e9f565b9450613f3883614de6565b925060208a01995050600181019050613f14565b50829750879550505050505092915050565b6000613f6982614dd0565b613f738185614e11565b9350613f7e83614db5565b8060005b83811015613faf578151613f968882613eb3565b9750613fa183614df3565b925050600181019050613f82565b5085935050505092915050565b613fc581614f6b565b82525050565b6000613fd682614ddb565b613fe08185614e22565b9350613ff0818560208601614fb0565b613ff98161511a565b840191505092915050565b600061400f82614ddb565b6140198185614e33565b9350614029818560208601614fb0565b6140328161511a565b840191505092915050565b600061404a600383614e33565b91507f41303500000000000000000000000000000000000000000000000000000000006000830152602082019050919050565b600061408a600483614e33565b91507f4e453034000000000000000000000000000000000000000000000000000000006000830152602082019050919050565b60006140ca600383614e33565b91507f41303400000000000000000000000000000000000000000000000000000000006000830152602082019050919050565b600061410a600383614e33565b91507f4d303200000000000000000000000000000000000000000000000000000000006000830152602082019050919050565b600061414a600383614e33565b91507f44303200000000000000000000000000000000000000000000000000000000006000830152602082019050919050565b600061418a600383614e33565b91507f44303300000000000000000000000000000000000000000000000000000000006000830152602082019050919050565b60006141ca602683614e33565b91507f4f776e61626c653a206e6577206f776e657220697320746865207a65726f206160008301527f64647265737300000000000000000000000000000000000000000000000000006020830152604082019050919050565b6000614230600383614e33565b91507f43303100000000000000000000000000000000000000000000000000000000006000830152602082019050919050565b6000614270600383614e33565b91507f43303200000000000000000000000000000000000000000000000000000000006000830152602082019050919050565b60006142b0600383614e33565b91507f4d303100000000000000000000000000000000000000000000000000000000006000830152602082019050919050565b60006142f0600483614e33565b91507f4e453032000000000000000000000000000000000000000000000000000000006000830152602082019050919050565b6000614330600383614e33565b91507f41303700000000000000000000000000000000000000000000000000000000006000830152602082019050919050565b6000614370600383614e33565b91507f49303100000000000000000000000000000000000000000000000000000000006000830152602082019050919050565b60006143b0600383614e33565b91507f41303200000000000000000000000000000000000000000000000000000000006000830152602082019050919050565b60006143f0600383614e33565b91507f44303100000000000000000000000000000000000000000000000000000000006000830152602082019050919050565b6000614430600383614e33565b91507f43303300000000000000000000000000000000000000000000000000000000006000830152602082019050919050565b6000614470602083614e33565b91507f4f776e61626c653a2063616c6c6572206973206e6f7420746865206f776e65726000830152602082019050919050565b60006144b0600483614e33565b91507f4e453031000000000000000000000000000000000000000000000000000000006000830152602082019050919050565b60006144f0600383614e33565b91507f41303100000000000000000000000000000000000000000000000000000000006000830152602082019050919050565b6000614530600383614e33565b91507f41303300000000000000000000000000000000000000000000000000000000006000830152602082019050919050565b6000614570600383614e33565b91507f41303600000000000000000000000000000000000000000000000000000000006000830152602082019050919050565b60006145b0600383614e33565b91507f49303200000000000000000000000000000000000000000000000000000000006000830152602082019050919050565b60006145f0600483614e33565b91507f4e453033000000000000000000000000000000000000000000000000000000006000830152602082019050919050565b6000614630600583614e33565b91507f4d585430310000000000000000000000000000000000000000000000000000006000830152602082019050919050565b6000614670600383614e33565b91507f43303400000000000000000000000000000000000000000000000000000000006000830152602082019050919050565b6000610140830160008301516146bc60008601826148ae565b5060208301516146cf60208601826148ae565b50604083015184820360408601526146e78282613fcb565b91505060608301516146fc60608601826148ae565b50608083015184820360808601526147148282613fcb565b91505060a083015184820360a086015261472e8282613fcb565b91505060c083015184820360c08601526147488282613fcb565b91505060e083015161475d60e08601826148ae565b506101008301516147726101008601826148ae565b506101208301516147876101208601826148ae565b508091505092915050565b60006060830160008301516147aa60008601826148ae565b5060208301516147bd60208601826148ae565b50604083015184820360408601526147d58282613fcb565b9150508091505092915050565b6000610100830160008301516147fb6000860182613ecb565b50602083015184820360208601526148138282613fcb565b9150506040830151848203604086015261482d8282613fcb565b915050606083015161484260608601826148ae565b506080830151848203608086015261485a8282613fcb565b91505060a083015184820360a08601526148748282613ee9565b91505060c083015184820360c086015261488e8282613fcb565b91505060e08301516148a360e0860182613fbc565b508091505092915050565b6148b781614f97565b82525050565b6148c681614f97565b82525050565b60006020820190506148e16000830184613eda565b92915050565b600060208201905081810360008301526149018184613f5e565b905092915050565b600060208201905081810360008301526149238184614004565b905092915050565b600060808201905081810360008301526149458187614004565b905061495460208301866148bd565b61496160408301856148bd565b61496e6060830184613eda565b95945050505050565b600060208201905081810360008301526149908161403d565b9050919050565b600060208201905081810360008301526149b08161407d565b9050919050565b600060208201905081810360008301526149d0816140bd565b9050919050565b600060208201905081810360008301526149f0816140fd565b9050919050565b60006020820190508181036000830152614a108161413d565b9050919050565b60006020820190508181036000830152614a308161417d565b9050919050565b60006020820190508181036000830152614a50816141bd565b9050919050565b60006020820190508181036000830152614a7081614223565b9050919050565b60006020820190508181036000830152614a9081614263565b9050919050565b60006020820190508181036000830152614ab0816142a3565b9050919050565b60006020820190508181036000830152614ad0816142e3565b9050919050565b60006020820190508181036000830152614af081614323565b9050919050565b60006020820190508181036000830152614b1081614363565b9050919050565b60006020820190508181036000830152614b30816143a3565b9050919050565b60006020820190508181036000830152614b50816143e3565b9050919050565b60006020820190508181036000830152614b7081614423565b9050919050565b60006020820190508181036000830152614b9081614463565b9050919050565b60006020820190508181036000830152614bb0816144a3565b9050919050565b60006020820190508181036000830152614bd0816144e3565b9050919050565b60006020820190508181036000830152614bf081614523565b9050919050565b60006020820190508181036000830152614c1081614563565b9050919050565b60006020820190508181036000830152614c30816145a3565b9050919050565b60006020820190508181036000830152614c50816145e3565b9050919050565b60006020820190508181036000830152614c7081614623565b9050919050565b60006020820190508181036000830152614c9081614663565b9050919050565b60006020820190508181036000830152614cb181846146a3565b905092915050565b60006020820190508181036000830152614cd38184614792565b905092915050565b60006020820190508181036000830152614cf581846147e2565b905092915050565b6000602082019050614d1260008301846148bd565b92915050565b6000604051905081810181811067ffffffffffffffff82111715614d3f57614d3e6150eb565b5b8060405250919050565b600067ffffffffffffffff821115614d6457614d636150eb565b5b602082029050602081019050919050565b600067ffffffffffffffff821115614d9057614d8f6150eb565b5b601f19601f8301169050602081019050919050565b6000819050602082019050919050565b6000819050602082019050919050565b600081519050919050565b600081519050919050565b600081519050919050565b6000602082019050919050565b6000602082019050919050565b600082825260208201905092915050565b600082825260208201905092915050565b600082825260208201905092915050565b600082825260208201905092915050565b6000614e4f82614f97565b9150614e5a83614f97565b9250827fffffffffffffffffffffffffffffffffffffffffffffffffffffffffffffffff03821115614e8f57614e8e61505e565b5b828201905092915050565b6000614ea582614f97565b9150614eb083614f97565b925082614ec057614ebf61508d565b5b828204905092915050565b6000614ed682614f97565b9150614ee183614f97565b9250817fffffffffffffffffffffffffffffffffffffffffffffffffffffffffffffffff0483118215151615614f1a57614f1961505e565b5b828202905092915050565b6000614f3082614f97565b9150614f3b83614f97565b925082821015614f4e57614f4d61505e565b5b828203905092915050565b6000614f6482614f77565b9050919050565b60008115159050919050565b600073ffffffffffffffffffffffffffffffffffffffff82169050919050565b6000819050919050565b82818337600083830152505050565b60005b83811015614fce578082015181840152602081019050614fb3565b83811115614fdd576000848401525b50505050565b60006002820490506001821680614ffb57607f821691505b6020821081141561500f5761500e6150bc565b5b50919050565b600061502082614f97565b91507fffffffffffffffffffffffffffffffffffffffffffffffffffffffffffffffff8214156150535761505261505e565b5b600182019050919050565b7f4e487b7100000000000000000000000000000000000000000000000000000000600052601160045260246000fd5b7f4e487b7100000000000000000000000000000000000000000000000000000000600052601260045260246000fd5b7f4e487b7100000000000000000000000000000000000000000000000000000000600052602260045260246000fd5b7f4e487b7100000000000000000000000000000000000000000000000000000000600052604160045260246000fd5b6000601f19601f8301169050919050565b61513481614f59565b811461513f57600080fd5b50565b61514b81614f6b565b811461515657600080fd5b50565b61516281614f97565b811461516d57600080fd5b5056fea2646970667358221220939fad77af2ced2ff6f22ca0c1cbdb54478837f9bfb03060969877b4746d1fde64736f6c63430008000033",
  "linkReferences": {},
  "deployedLinkReferences": {}
}